:020000040800F2
:10000000880D00209D0100082D1C0008F10F00083C
:10001000291C00084D0300088D2C0008000000007A
:10002000000000000000000000000000AF01000818
:100030006303000800000000B3010008F925000870
:10004000B7010008B7010008B7010008B7010008B0
:10005000B7010008B7010008B7010008B7010008A0
:10006000B7010008B7010008B7010008B701000890
:10007000B7010008B7010008B7010008B701000880
:10008000B7010008B7010008B7010008B701000870
:10009000B7010008B7010008B7010008B701000860
:1000A000B7010008B7010008B7010008B701000850
:1000B000B7010008B7010008B7010008B701000840
:1000C000B7010008B7010008B7010008B701000830
:1000D000B7010008B7010008B7010008B701000820
:1000E000B7010008B7010008B7010008B701000810
:1000F000B7010008B7010008B7010008B701000800
:10010000B7010008B7010008B7010008B7010008EF
:10011000B7010008B7010008B7010008B7010008DF
:10012000B7010008B7010008B7010008B7010008CF
:10013000B7010008B7010008B7010008B7010008BF
:10014000B7010008B7010008B7010008B7010008AF
:10015000B7010008B7010008B7010008B70100089F
:10016000B7010008B7010008B7010008B70100088F
:10017000B7010008B7010008B7010008B70100087F
:10018000B7010008B7010008DFF80CD000F046F80E
:100190000048004733460008880D00200648804785
:1001A00006480047FEE7FEE7FEE7FEE7FEE7FEE75C
:1001B000FEE7FEE7FEE7FEE7852600088901000866
:1001C00010B5431A934209D28318881803E010F837
:1001D000011D03F8011D521EF9D210BD40EA0103B2
:1001E0009B0703D009E008C9121F08C0042AFAD2ED
:1001F00003E011F8013B00F8013B521EF9D210BD9B
:1002000030B504460020034600E05B1C934203D255
:10021000E05CCD5C401BF8D030BD0000064C074DC3
:1002200006E0E06840F0010394E8070098471034C6
:10023000AC42F6D3FFF7ACFFF850000818510008A5
:1002400070B501EB020410F8015B15F0070301D152
:1002500010F8013B2A1106D110F8012B03E010F829
:10026000016B01F8016B5B1EF9D12B0705D400234C
:10027000521E0FD401F8013BFAE710F8013B02F1DE
:100280000202A1EB030303E013F8015B01F8015B39
:10029000521EF9D5A142D6D3002070BD10B5044638
:1002A0002146512001F0D0FE10BD2DE9F041054658
:1002B0000C4616461F46DDF81880E9B2582001F0BA
:1002C000C3FE2912592001F0BFFEE1B25A2001F00D
:1002D000BBFEB8F1000F04D121125B2001F0B4FE87
:1002E00005E0802040EA24215B2001F0ADFEF9B258
:1002F0005C2001F0A9FE39125D2001F0A5FEF1B2EB
:100300005E2001F0A1FE31125F2001F09DFEBDE8EC
:10031000F081000010B5012004490870502001F060
:1003200089FE802001F08CFE10BD00003E00002000
:1003300010B500BF01F09CFD00F040004028F9D04E
:1003400000200149087010BD3E00002000BFFEE7FC
:1003500001B502E00098401E009000980028F9D1F5
:1003600008BD704751B14FF0204252F8202042F0B2
:1003700001024FF0204343F8202009E04FF02042D3
:1003800052F82020034B1A404FF0204343F820201E
:1003900070470000FEFF0F00D0E901121143C26850
:1003A0001143026911434269114382691143C269D1
:1003B0001143026A1143426A1143826A1143C26ABD
:1003C0001143026B11434FF02043026843F822109F
:1003D0008168082908D11A46016852F8211041F0B5
:1003E0004001026843F82210416B0968426B526871
:1003F00041EA0211426B926841EA0221426B928902
:1004000041EA0241426B128A41EA0251426B127D7B
:1004100041EA0261426B926911430268521C4FF03B
:10042000204343F82210C16AB1F5804F1AD1816B85
:100430000968826B526841EA0211826B926841EA54
:100440000221826B128A41EA0251826B127D41EADB
:100450000261826B92691143026803EB8202C2F867
:10046000041108E06FF070414FF02043026803EB85
:100470008202C2F804117047F0B50A460021002339
:10048000002400BF3DE0012505FA01F3156805EAE7
:1004900003049C4234D105684F000326BE40B54397
:1004A000056015794E00B54006683543056015793D
:1004B000012D02D01579022D16D185684F00032633
:1004C000BE40B543856055794E00B54086683543DA
:1004D0008560456801268E40B5434560456896793C
:1004E0008E40B6B235434560C5684F000326BE4016
:1004F000B543C560D5794E00B540C6683543C56083
:10050000491C1029BFD3F0BDF0B5002300244D07CE
:10051000ED0E02FA05F3CE1000F1200555F8265035
:100520004E07F70E0F26BE40B543CF1000F1200650
:1005300046F82750CE1000F1200555F8265045EA20
:100540000304CE1000F1200545F82640F0BD0183DC
:10055000704700002DE9F04FDFF828B191B04FF05F
:10056000FF35DBF80030B3F922100691DE69B3F9EC
:100570002490F469A189814206D8E289824203D39A
:10058000471AD4F8008012E0D4E9018100296FD025
:100590000A8882426CD84D88854269D3801A82B21B
:1005A000486800EB8200B0F90070B0F90250781C86
:1005B0005ED0307EA17C10FB01FA217CCDE90801E0
:1005C000B3F92A60304601F001FBC0B20E90DBF8AF
:1005D000000007FB0A81A37C826B0127CDE904128E
:1005E000CDE90273C069DDE90832C17E807ECDE9C4
:1005F00000014946069801F0B1F8681C18D046F091
:10060000020001F0E3FADBF80000A37C05FB0A819D
:10061000826BCDE90273CDE90412C069DDE90832CD
:10062000C17E807ECDE900014946069801F096F82A
:10063000DBF800005D46C069417E007E814214D92E
:10064000022E12D086F0040001F0C0FA2868C069BA
:10065000027EC37E12FB0391437E857E099A069833
:100660004B4402FB050201F0A9F90E9801F0AEFA25
:10067000DBF80000627C418C1144418411B0BDE87C
:10068000F08F00007000002004480068C069C06955
:1006900009B1027C0A60407C7047000070000020B5
:1006A000022008807047C06982898A4202D8C289C4
:1006B0008A4210D2806880B102888A420DD843886D
:1006C0008B420AD3406800EB8100A0EB8200B0F9B6
:1006D0000000002801DB012070470020704700283F
:1006E00001D002F069BF704710B5002814D004464D
:1006F0000A48006B10F8341000290DD002290BD2E3
:10070000042101EBC4014158486802F019FF20465A
:10071000BDE8104003F0D6B910BD00003002002043
:10072000002805D0034A916B016001B148609063D5
:10073000704700003002002010B5002403F0E6F8F6
:100740000C490F2001EBC002126C1AB101EBC00082
:10075000006C08E0401EF5D508E04168A14200D9D0
:100760000C46806810B180680028F6D1A4F10C0016
:1007700010BD00003002002005498A69521C8A61C0
:10078000096B01EBC0010A78521C0A7000F01AB81C
:10079000300200200A4902680B6B52F8082C03EB68
:1007A000C2021378022B03D38B690BB15B1E8B61E2
:1007B0001178491E11700021016008467047000041
:1007C00030020020002806D00349042202EBC000BA
:1007D000096B0858083070473002002070B5064693
:1007E0000D461446104600F0E3F80300164804EBEB
:1007F00084010AD050F8210041688068711A2A1AD1
:10080000BDE87040184600F0BFB900EB8104A26853
:10081000B24201D0012200E00022E368AB4201D0E5
:10082000012300E000231A430CD0236943B150F8A0
:100830002100816840686A1A311A184600F096F95A
:10084000C4E9026570BD0000D4030020FFF768BF53
:1008500070B590B382690F2A30DA1C4C54F822101C
:1008600019B944F822002FE019464B68002BFBD140
:1008700006E0CB68C5681B682D68AB4203DD0968DC
:100880000029F6D11AE0C1B1CB68C6681B6836688A
:10089000B3420CD1838A012B05D008E01946DB68EE
:1008A0001B68AB4203DB0B68002BF7D129B14B6807
:1008B00033B118604A68426004E0FFE7012070BD70
:1008C00044F8220048600160002070BD98030020B9
:1008D00003F05EBC0F2801DB00207047054951F88A
:1008E000200004E0C16809680029F6D000680028EB
:1008F000F8D170479803002003490860034909684C
:1009000001B18847FEE700008C000020C8000020ED
:1009100008B50B46002805D0009281888268C088FF
:1009200000F001F808BD10B50828029C30D008DCA2
:1009300004FB01F401280AD0022813D0042804D1B2
:100940001CE0102828D020282CD0002010BD04EB5B
:10095000D30003F00701105CC1F10701C84000F0AB
:10096000010010BD04EB93000621105C01EA430175
:10097000C1F10601C84000F0030010BD04EB5300B4
:10098000D907105C02D000F00F0010BD000910BDA7
:1009900004FB0130105C10BD481004FB003032F83D
:1009A000100010BD881004FB003052F8200010BD6C
:1009B00000210F2802D2024951F820100846704742
:1009C0001C05002070B514460D4601F023F80028E0
:1009D00002D000202860206070BD000038B50400FF
:1009E00019D00D480068D0F89400A04201D100F061
:1009F000C2F82046FFF7C0FE0090406908B100F041
:100A0000CBF900980068FFF721FF6846FFF7C2FEA8
:100A10002046FFF769FE38BD70000020F8B5144E7F
:100A200005003068D0F894400DD00CB100F0A3F868
:100A300002F036F92846FFF79FFE00903168D1F8A2
:100A400094201AB106E000F096F80FE0D1E90223F5
:100A5000C1E92623C1F894500068FFF7F9FE684603
:100A6000FFF798FE01F0CEF801F096F82046F8BDA9
:100A70007000002010B5002821D009B30AB3B1F9E5
:100A80000040B2F900309C4200DA23460380B1F9FD
:100A90000240B2F902309C4200DA23464380B1F9A9
:100AA0000440B2F904309C4200DD23468380B1F952
:100AB0000610B2F90620914200DC1146C18010BD3B
:100AC00011460A6802604968416010BD00280BD0D9
:100AD00003880B4403808388194481804188114432
:100AE0004180C1881144C1807047000070B5104D2D
:100AF0000446D5E9000188420ED10E49884203D14F
:100B0000D0E90F12406C03E00C38D0E90012806885
:100B10002160C4E9012006E090E80E0084E80E00A0
:100B200002F0EAFE2860207A002800D0012070BD83
:100B3000240100206C0600200448D0E90010814206
:100B400001D10120704700207047000024010020DF
:100B5000054A10B50349116003F060FABDE8104082
:100B600000F014B82D2D000888000020002801D0C6
:100B700003F0D8B8704710B500F0CCFF01F042F890
:100B8000BDE8104002F084B801F026B802480068C1
:100B9000002800D0004770472C0100202DE9F047C5
:100BA000524D534E0024E86978B96868346000F00B
:100BB0000501746010F0060F01D000F00500B4606C
:100BC000F46003F095F80120E8612878C8B100F0DE
:100BD000D3F8A846286100F0CDF82969286A814237
:100BE0000BDBD8F824204046914206DC836A426938
:100BF0009A4202DBC36A9A420DDD4FF0FF30014694
:100C00006FE000F0C3F8686100F0B5F82878401C88
:100C10002870BDE8F087326898F81800354F8D1AB3
:100C2000400700283868407C02DB00F009FF01E043
:100C300000F009FF401E4543D6E90020B146801A66
:100C400095FBF0F6D8F81420D9F8081098F8180099
:100C5000551A400700283868407C02DB00F0F3FE9C
:100C600001E000F0EDFE401E4543D9E90201081AFB
:100C700095FBF0F598F81800400700283868407C8C
:100C800018DB00F0DDFE81463868407C00F0DBFEBA
:100C9000D8F818200146D00704D0A9EB0600A0F12F
:100CA000010000E03046920702D5491B491E18E0BA
:100CB000294616E000F0C7FE81463868407C00F007
:100CC000BFFED8F81820D10704D0A9EB0601A1F186
:100CD000010100E03146920702D5401B401E00E0B2
:100CE000284603F0C7F988F8004092E798000020F2
:100CF0000005002070000020074A002806DB0029BC
:100D000004DB01231372C2E9000101E0002010722C
:100D1000014800F003B800001005002010B504469B
:100D20000C220749FFF76CFA002808D0044894E821
:100D30000E000EC02046BDE81040FFF709BF10BDF1
:100D40005805002030B40A4C2268831A01D5C3F13B
:100D5000000362688A1A00D552421A44022A04DD4E
:100D6000C4E9000130BCFFF7C7BF30BC70470000CA
:100D7000CC0000207047704710B501F059FE0248C2
:100D8000B0F9040010BD0000240200200148B0F9B1
:100D9000060070472402002038B50546FFF7ECFC3A
:100DA00000908189491E0CB284816846FFF7F2FCED
:100DB000002C02D12846FFF797FC38BD044A126880
:100DC000111800BF024A12688A1A002AFADC70471A
:100DD0000800002000B50120FFF7F0FF00BD10B5AE
:100DE000082A0EDC0346012A1AD0022A58D0042A07
:100DF00078D010F8042B03F8012B491EF9D10120FB
:100E000010BD102A0ADC0222022AF8D1024630F86C
:100E1000043B22F8023B491EF9D1F0E7002010BD47
:100E200010F8042BD207120E491E34D010F8044BD0
:100E3000491E04F0010442EA84122CD010F8044B3D
:100E4000491E04F0010442EA441224D010F8044B75
:100E5000491E04F0010442EA04121CD010F8044BAD
:100E6000491E04F0010442EAC40214D010F8044BF5
:100E7000491E04F0010442EA84020CD010F8044B2D
:100E8000491E04F0010442EA440204D010F8044B65
:100E900004F00104224303F8012B0029C0D1AEE77E
:100EA00010F8042B9207120E491E15D010F8044BAF
:100EB000491E04F0030442EA04120DD010F8044B5A
:100EC000491E04F0030442EA840205D010F8044BE2
:100ED00004F003042243491E03F8012B0029DFD14B
:100EE0008DE7FFE710F8042B1207120E491E05D0FC
:100EF00010F8044B04F00F042243491E03F8012BA1
:100F00000029EFD17BE7B0F90030B1F9002093421E
:100F100000DA0280B0F90230B1F90220934200DA1F
:100F20004280B0F90430B1F90420934200DD8280A0
:100F3000B0F90620B1F906108A4200DDC180704781
:100F400070B5B1F90040B2F900309C4200DD234693
:100F50000380B1F90250B2F90240A54200DD2C46EF
:100F60004480B1F90460B2F90450AE4200DA35466B
:100F70008580B1F90610B2F90620914200DB1146D6
:100F8000C1809D4201DBA14201DA002070BD012039
:100F900070BD000002494A69426048617047000024
:100FA0006400002010B502E000F8011B521E0AB1D7
:100FB0008307F9D1930818D001EB014402F0030232
:100FC00004EB042405E0046044608460C4601030D5
:100FD0001B1F042BF7DA01E010C05B1E002BFBD1B6
:100FE00003E000BF00F8011B521E002AFAD110BD19
:100FF00008A100200AE00A5C114B9A8000BF104A49
:10100000128812F0400FFAD0421CD0B22A28F2D334
:1010100000BFFEE70D0A456E746572204861726478
:101020004661756C745F48616E646C65722C205308
:10103000797374656D2048616C742E0D0A00000090
:101040000010014010B50021084601F0FFF94FF4EF
:101050008071012001F0FAF94FF48071022001F053
:10106000F5F941F21801032001F0F0F940F608010A
:10107000082001F0EBF90121092001F0E7F9102126
:101080000B2001F0E3F900210C2001F0DFF9002131
:101090000F2001F0DBF90121072001F0D7F913211E
:1010A000102001F0D3F940F20151112001F0CEF9E6
:1010B0004FF44071122001F0C9F940F21E212020A6
:1010C00001F0C4F940F20221212001F0BFF94FF4F0
:1010D0000041902001F0BAF941F2B0714FF48070F4
:1010E00001F0B4F940F2471140F2011001F0AEF9FD
:1010F00040F235114FF4817001F0A8F94FF4E0612E
:1011000040F2031001F0A2F9002140F2071001F0B3
:101110009DF901214FF4887001F098F900214FF4F6
:10112000047001F093F9EF2140F2112001F08EF9E3
:10113000002140F2122001F089F940F28F1140F2B3
:10114000132001F083F900214FF4207001F07EF9A3
:10115000042140F2812001F079F9002140F282203F
:1011600001F074F940F201114FF4407001F06EF992
:1011700040F62C3140F2013001F068F941F23001C3
:1011800040F2023001F062F943F2100140F2033004
:1011900001F05CF942F60B414FF4417001F056F951
:1011A00040F2011140F2053001F050F940F607011C
:1011B00040F2063001F04AF94FF4E16140F20730A5
:1011C00001F044F940F207114FF4427001F03EF98A
:1011D00040F2051140F2093001F038F940F604718F
:1011E00040F20A3001F032F94FF4706140F20B30F6
:1011F00001F02CF90F214FF4437001F027F940F270
:101200000F4140F20D3001F021F94FF4407140F2EE
:101210000E3001F01BF940F2017140F20F3001F085
:1012200015F94FF454514FF4806001F00FF901218A
:1012300040F2014001F00AF9002140F2044001F0BF
:1012400005F900214FF4A06001F000F9002140F2FF
:10125000015001F0FBF8002140F2025001F0F6F8D5
:10126000002140F2035001F0F1F8002140F2045057
:1012700001F0ECF8002140F2055001F0E7F8002100
:101280004FF4C06001F0E2F8002140F2066001F086
:10129000DDF800214FF4DE6001F0D8F845F220417E
:1012A0004FF4FE6001F0D2F8002140F2DE7001F050
:1012B000CDF8DF2140F2F27001F0C8F84FF401617F
:1012C00040F2F37001F0C2F8772140F2F47001F0BF
:1012D000BDF8212140F2F57001F0B8F800214FF47B
:1012E000FE6001F0B3F840F27311072001F0AEF890
:1012F00000214FF4047001F0A9F8EF2140F2112011
:1013000001F0A4F8002140F2122001F09FF840F211
:101310008F1140F2132001F099F810BD10B5002193
:10132000084601F093F80021084601F08FF80021EB
:10133000084601F08BF80021084601F087F800F01C
:1013400065FF40F60801082001F080F810210846EA
:1013500001F07CF84FF4C4414FF4806001F076F85E
:1013600040F606414FF4407001F070F849F60F5115
:1013700040F2013001F06AF840F6053140F20230E7
:1013800001F064F841F2172140F2033001F05EF8F9
:1013900043F233314FF4417001F058F841F21271C9
:1013A00040F2053001F052F849F20B5140F206309C
:1013B00001F04CF840F60D7140F2073001F046F8AC
:1013C00040F20C614FF4427001F040F8002140F20D
:1013D000093001F03BF840F20221112001F036F80B
:1013E00040F20111122001F031F80121132001F027
:1013F0002DF80121072001F029F84FF4E6614FF4A0
:10140000807001F023F840F2372140F2011001F022
:101410001DF84FF42C5140F2031001F017F84FF46F
:1014200080414FF4207001F011F848F2B0114FF4F0
:10143000817001F00BF800F0E9FE4FF4807101209B
:1014400001F004F84FF48071022000F0FFFF41F238
:101450001801032000F0FAFF0121092000F0F6FF37
:1014600000210C2000F0F2FF4FF40041902000F02A
:10147000EDFF00210F2000F0E9FF00214FF4047080
:1014800000F0E4FFEF2140F2112000F0DFFF002127
:1014900040F2122000F0DAFF40F28F1140F21320E8
:1014A00000F0D4FF00214FF4A06000F0CFFF002136
:1014B00040F2015000F0CAFF5F2140F2025000F0FC
:1014C000C5FF012140F2014000F0C0FF002140F2C1
:1014D000044000F0BBFF00F099FE4FF4807107203C
:1014E00000F0B4FF00F092FE00214FF4007000F015
:1014F000ADFF002140F2012000F0A8FF10BD000068
:101500000448006810F4005F01D1012070470020FA
:10151000FCE700001008024010B5FFF7F1FF20B112
:1015200000F006F808B1012010BD0020FCE7000023
:101530000448006810F0010F01D10120704700201D
:10154000FCE70000100802400448006810F0020F99
:1015500001D1012070470020FCE700001008024084
:101560000448006810F0080F01D1012070470020E6
:10157000FCE70000100802400448006810F0100F5B
:1015800001D1012070470020FCE700001008024054
:101590000448006810F0040F01D1012070470020BA
:1015A000FCE70000100802400448006910F0020F38
:1015B00001D1012070470020FCE70000000002403C
:1015C0000448006910F0010F01D10120704700208C
:1015D000FCE700000000024010B5FFF791FF20B1CA
:1015E000FFF7A6FF08B1012010BD0020FCE70000B6
:1015F00010B5044605480088752803D1204600F040
:1016000017FB02E0204600F0E3FD10BD340000208F
:101610000449054A0968497C52F82110096909689A
:101620000847000070000020980300201CB501212D
:10163000084600F029FD0121182000F015FD0C22BC
:1016400000214448FEF760FF0C2201214148FEF7CB
:101650005BFF0C2204213F48FEF756FF0C220521B8
:101660003C48FEF751FF0C2208213A48FEF74CFF98
:101670000C2209213748FEF747FF0C220A21354882
:10168000FEF742FF0C220E213248FEF73DFF0C22EE
:101690000F213048FEF738FF4CF2337000900220E3
:1016A0008DF8040003208DF8050000208DF8060059
:1016B0008DF8070069462748FEF7DEFE0C22072159
:1016C0002548FEF721FF0C2208212348FEF71CFFC6
:1016D0000C2209212048FEF717FF0C220A211E4880
:1016E000FEF712FF0C220B211B48FEF70DFF0C2208
:1016F00011461948FEF708FF0C220D211648FEF787
:1017000003FF0C220E211448FEF7FEFE0C220F21CF
:101710001148FEF7F9FE4FF68070009069460E48BA
:10172000FEF7AAFE0C220D210A48FEF7EDFE4FF44B
:101730000050009069460748FEF79EFE0C220721E4
:101740000448FEF7E1FE8020009069460148FEF75C
:1017500093FE1CBD000C0240001002402DE9F04F2A
:1017600005468DB07C48DDF860901A9C00681E46E6
:1017700017464FF0000A78B11B9B199ACDF80890D4
:101780000593CDE90324DDE91623CDE900230468A0
:1017900033463A46284682E0DDE9160201EB0608A8
:1017A00005EB070C1043A8F10108ACF1010C01286E
:1017B00006D0C9F108000590002002910890C8E009
:1017C00066480268B2F90A30581A002806DD361A4F
:1017D000002E65DD1946199B00FB0344B2F90E008B
:1017E000A8EB0000002802DD361A002E58DDB2F901
:1017F0000C00ACEB0000002800DD3F1AB2F9083005
:101800000020AB4237DD581B3F1A4B46B9F1080F99
:1018100028D007DC012B0DD0022B13D0B9F1040F17
:1018200029D117E0102B1FD0182B20D0B9F1200F91
:1018300021D11CE020F0070304EBE0041D4400F07C
:10184000070018E020F0030304EBA0041D4400F09F
:10185000030010E020F0010304EB60041D4400F0DD
:10186000010008E0044404E004EB400401E004EB60
:10187000800405440020002F12DD1B9BDDF864C0AE
:10188000CDE90403CDE902C4CDE90069527C3448B6
:101890003B4650F82200C26854680A462946A047D1
:1018A0000DB0BDE8F08F17990298084409902B49B4
:1018B000401E00900A68B2F90A30834241DCB2F956
:1018C0000E10029881423CDB4FF0000BD846039586
:1018D0000B9434E0BBF1000F05D10B984FF0080BCF
:1018E00010F801AB0B900599ABEB090B3AFA01F03C
:1018F0000AFA09F101F0FF0A04D118490968097CC4
:10190000890716D415490968C96B0A680C921B9A95
:101910000AB152F82000086016990398009B4218FB
:10192000521E029900F04AF80C490C980968C96BDC
:1019300008600399169808F1010808440390B84517
:10194000C8DB0898401C0890099802901998044434
:101950000898B042A7DBA3E79000002070000020A9
:101960009803002000B597B0052001900020029058
:10197000092003900020049005900690079008909D
:1019800009900A9010200B9000200C900D900E9062
:101990000F9010904FF480501190002012901390EF
:1019A000149001A81590169008A8FEF7F5FC0121E7
:1019B0000020FEF7D7FC17B000BD000038B5134C6F
:1019C0002468B4F90850854200DD2846B4F90C506B
:1019D000954200DA2A46824217DBB4F90A508D425A
:1019E00000DD2946B4F90E509D4200DA2B468B42A9
:1019F0000BDB0093647C064B53F82440E3681D69BD
:101A000013460A4601462046A84738BD700000200C
:101A100098030020F8B515460E460124FEF75AFF3C
:101A2000009058B1C0680421426A6846904703009C
:101A300004D02A4631460098984700242046F8BD35
:101A4000012101F03BBF022101F038BFAFF300805C
:101A50002DE9F041002809D0876837B10D4E716833
:101A600019B10468B4F5807F02DD0020BDE8F08183
:101A70003068844200DD0446002507E057F8250061
:101A8000FFF7C6FD716841F825006D1CA542F5DB26
:101A90007068EBE7D800002010B5FFF7C7FDFFF72F
:101AA00061FF1848FEF754FC00F026FC0446A4F53C
:101AB000A840203807D0A4F53540093803D0A4F554
:101AC000AA40203802D100F0ABFB13E000F0C0F9CF
:101AD000752804D10C49088000F0E4F80AE044F2CB
:101AE000010009490880F020084908804FF4C870B7
:101AF000074908800020FFF77BFDFF2000F02CF84D
:101B000010BD000040420F003400002036000020CD
:101B10003800002010B50E4C0E492068407C51F86A
:101B2000200050B1C1680968042903D0006800286A
:101B3000F8D102E008B1FEF7CBFE20680021C0F822
:101B4000941000F108014161BDE8104000F024B894
:101B5000700000209803002010B504460648047069
:101B600006480088752803D1204600F087F902E076
:101B7000204600F0D3FB10BD3A00002034000020C6
:101B8000044909680A7C520701D5C96B00E0896BDA
:101B900008607047700000200448016804484A7CCF
:101BA000083150F82200C268126B10477000002004
:101BB00098030020044909680A7C520701D5896B03
:101BC00000E0C96B08607047700000200149096897
:101BD00089680847D4000020F8B515460E46012450
:101BE000FEF778FE009058B1C0680321426A68464B
:101BF0009047030004D02A463146009898470024B5
:101C00002046F8BD10B5074C2068006BFFF700FDBB
:101C1000FFF7D0FF2068406BFFF7FAFCBDE81040EB
:101C2000FFF7AEBF7000002000BFFEE77047000066
:101C300038B50446002000900A4803880A48028804
:101C40000A4801880A480088FEF72FFB0C20FEF79F
:101C500025FB204600F082F9FEF75CFBFEF768FBEF
:101C600038BD000046000020440000204200002053
:101C700040000020002001E0411C88B241F2883180
:101C80008842F9DB7047002001E0411CC8B20A28F5
:101C9000FBDB7047002001E0411C88B2B0F57A7F81
:101CA000FADB704710B5C72000F0D8F86549087016
:101CB00008460078012856D1882000F0BBF9FFF7CC
:101CC000E2FF0A2000F0BCF9FFF7D4FF892000F002
:101CD000B1F9FFF7D8FF022000F0B2F9FFF7CAFF11
:101CE0000A21102000F0B0F98221042000F0ACF9A4
:101CF000FFF7C0FF3B21142000F0A6F900211520BA
:101D000000F0A2F90121162000F09EF90021172011
:101D100000F09AF90521182000F096F90F211920FA
:101D200000F092F901211A2000F08EF902211B2007
:101D300000F08AF900211C2000F086F907211D20FF
:101D400000F082F900211E2000F07EF909211F20F9
:101D500000F07AF94FF488703B4908804FF4F07036
:101D60003A49088055E04FF4F070374908804FF445
:101D7000487036490880882000F05CF9FFF783FF3F
:101D80000C2000F05DF9FFF775FF892000F052F993
:101D9000FFF779FF022000F053F9FFF76BFF0A21EC
:101DA000102000F051F98121042000F04DF9FFF7D7
:101DB00061FF6321142000F047F90021152000F095
:101DC00043F90321162000F03FF90321172000F00A
:101DD0003BF90B21182000F037F9DF21192000F022
:101DE00033F901211A2000F02FF91F211B2000F0E8
:101DF0002BF900211C2000F027F916211D2000F0EE
:101E000023F900211E2000F01FF901211F2000F0FE
:101E10001BF90121C72000F017F98021012000F0F3
:101E200013F90021402000F00FF90021412000F0BB
:101E30000BF906480388044802880021084600F090
:101E400049F810BD4C00002036000020380000206A
:101E500010B5002000F002F810BD00000146034A52
:101E600011804FF0C0421288D0B270470000086065
:101E700001490988C8B270470000086010B50446DF
:101E800024B900218A2000F0DFF80EE0FF2C04D1F5
:101E900040218A2000F0D8F807E08C218A2000F049
:101EA000D3F821468B2000F0CFF810BD70B5044662
:101EB0000D46E1B2462000F0C7F82112472000F09D
:101EC000C3F8E9B2482000F0BFF82912492000F019
:101ED000BBF870BD2DE9F04104460D461746984603
:101EE000E1B2302000F0B0F82112312000F0ACF85F
:101EF000E9B2322000F0A8F82912332000F0A4F84B
:101F000008EB0400401E86B2F1B2342000F09CF8C9
:101F10003112352000F098F87819401E86B2F1B2DF
:101F2000362000F091F83112372000F08DF8294664
:101F30002046FFF7BBFF054804800548058005489B
:101F400007800548A0F80080BDE8F081400000202F
:101F500042000020440000204600002010B5044646
:101F600001200A490870E10A632000F06DF8C4F30B
:101F70004511642000F068F804F01F01652000F0AE
:101F800063F800200149087010BD00003E000020E9
:101F900010B50421F02000F057F80421712000F062
:101FA00053F8A421702000F04FF810BD70B5F12057
:101FB000FFF754FF064616F0040F1ED07420FFF7FB
:101FC0004DFF05467220FFF749FF04464FF6FF70AC
:101FD00000EA840405F003000444114804807320DF
:101FE000FFF73CFF04464FF6FF7000EA8404C5F398
:101FF000810004440B48048004E000200849088064
:1020000008490880F12000F015F8042000F018F8C5
:10201000FFF740FEFFF73EFE0148008870BD00005C
:10202000480000204A000020014800887047000056
:102030004A00002001490880704700000000086045
:102040004FF0C041088070470122054B1A70054AC5
:1020500010804FF0C042118000221A7070470000BB
:102060003E0000200000086029B1064A12680243C1
:10207000044B1A6004E0034A12688243014B1A6061
:10208000704700003038024029B1064A1268024306
:10209000044B1A6004E0034A12688243014B1A6041
:1020A000704700003838024029B1064A12680243DE
:1020B000044B1A6004E0034A12688243014B1A6021
:1020C000704700004038024029B1064A12680243B6
:1020D000044B1A6004E0034A12688243014B1A6001
:1020E0007047000044380240F0B50021002200246F
:1020F000022500260223324F3F6807F00C0121B170
:10210000042905D0082937D105E02E4F076036E0B5
:102110002D4F076033E02A4F3F1F3F68C7F38056BB
:10212000274F3F1F3F6807F03F036EB1264FB7FBB5
:10213000F3F7DFF88CC0ACF1040CDCF800C0CCF392
:10214000881C07FB0CF40CE01E4FB7FBF3F7DFF81D
:1021500070C0ACF1040CDCF800C0CCF3881C07FBA9
:102160000CF4174F3F1F3F68C7F301477F1C7D00EA
:10217000B4FBF5F7076002E0124F076000BF00BF35
:102180000F4F3F6807F0F0010909104F7A5C0768AC
:10219000D74047600A4F3F6807F4E051890A0B4F68
:1021A0007A5C4768D7408760054F3F6807F4604115
:1021B000490B064F7A5C4768D740C760F0BD000006
:1021C000083802400024F40040787D010D00002012
:1021D00070B504460021084600F026F940F20220BE
:1021E0004FF0C0410880002502E0054804806D1CC6
:1021F00004480088044909884843A842F5D870BDBE
:10220000000008603600002038000020002001E0B7
:10221000411C88B24CF250318842F9DB7047000013
:1022200070B5002000F06EF80446A4F5A8402038F0
:1022300002D0B0F5807040D1FEF704FF00214FF4CA
:10224000007000F003F9002140F2012000F0FEF8D8
:1022500040F202204FF0C041088041F23420214971
:10226000088000214FF4007000F0F0F8002140F2E7
:10227000012000F0EBF840F202204FF0C04108804E
:10228000184805880588A5F59050343806D11649B8
:10229000087045F220401549088006E001201249E7
:1022A000087044F2010011490880F02010490880AC
:1022B0004FF4C8700F49088013E0A4F53540093881
:1022C0000FD1FFF72BF80120074908704BF2095096
:1022D00006490880F020064908804FF4C870054977
:1022E000088070BD000008603C0000203400002021
:1022F000360000203800002010B5002000F002F861
:1023000010BD000001B5BDF800004FF0C0410880CD
:102310000148008808BD00000000086010B58AB0C0
:10232000044601210420FFF79FFEB4B94020089025
:1023300001208DF8240003208DF8250000208DF861
:1023400026008DF8270008A93548FEF795F84021AA
:102350003348FEF7FCF80AB010BDFF2C19D140201D
:10236000089001208DF8240003208DF8250000201E
:102370008DF826008DF8270008A92948FEF77CF87B
:1023800040212748FEF7E3F80021264800F0D2F963
:10239000E1E7032206212248FEF7B6F802208DF875
:1023A000240003208DF8250000208DF826008DF8EC
:1023B000270001210220FFF787FE40F2CF20069080
:1023C0000020ADF81400ADF81C00ADF8160005A90A
:1023D000144800F013FA6020ADF800000120ADF8B9
:1023E000020006986043FF21B0FBF1F0029000204C
:1023F000ADF80C0069460B4800F0B8F9082109480F
:1024000000F0F2F90121074800F088F901210548A0
:1024100000F090F90121034800F098F900BF9AE715
:10242000000802400004014070B504460D462946EC
:102430004FF4007000F00AF840F28F10001B81B2D8
:1024400040F2012000F002F870BD000003B5BDF8B5
:1024500000004FF0C0421080014801800CBD000018
:102460000000086021B1028842F04002028004E0CE
:1024700002884FF6BF731A40028070470246002060
:1024800013890B4201D0012000E000207047014673
:10249000888970478181704710B50022028802F454
:1024A00041520B884C8823438C882343CC88234398
:1024B0000C8923434C8923438C892343CC892343B0
:1024C0001A430280838B4FF2FF74234083830B8A6D
:1024D000038210BD70B5044600BF02210A48FFF711
:1024E000CDFF0028F9D021460748FFF7D3FF00BFF2
:1024F00001210548FFF7C2FF0028F9D00248FFF785
:10250000C6FFC5B2284670BD003001400CB50020A2
:10251000019000903448006840F4803032490860EF
:1025200000BF3148006800F4003000900198401C62
:102530000190009818B90198B0F5A06FF1D12A4820
:10254000006810F4003F02D00120009001E000205C
:1025500000900098012845D123484030006840F0A1
:1025600080502149403108602048006840F4804094
:102570001E4908601C48083000681B490831086083
:102580000846006840F4004008600846006840F4CF
:10259000A05008601648091F0860081F006840F036
:1025A0008070091F086000BF0F48006810F0007FAE
:1025B000FAD040F205600F4908600B480830006807
:1025C00020F003000849083108600846006840F020
:1025D0000200086000BF04480830006800F00C00EA
:1025E0000828F8D10CBD00000038024000700040FF
:1025F00019544007003C024010B500F001F810BD2E
:1026000010B51B48006840B119480068401E1849C1
:10261000086002D1012017490870002408E004EB8B
:102620004401154A02EB810001F0F5FF601CC4B2C1
:10263000042CF4DB11480068401C1049086008466F
:1026400000686FF00041884202D100200B49086009
:1026500001F0E0FF0A480078401CC0B20849087049
:102660000A2803DB0020087001F0C2FF10BD000043
:102670000000002004000020F401002008000020D9
:102680000C00002010B51548006840F47000134994
:1026900008601348006840F00100114908600020FC
:1026A0000F49083108600E4800680E4908400C497F
:1026B00008600D48091D0860081F006820F480208C
:1026C000091F0860002006490C310860FFF71EFF53
:1026D0004FF0006001498039086010BD88ED00E0CE
:1026E00000380240FFFFF6FE103000240EB5012135
:1026F0001020FFF7D9FC4EF65F2001900620ADF8C0
:1027000000000020ADF80800ADF80200694602485C
:1027100000F074F80EBD00000010004021B10288E6
:1027200042F08002028004E002884FF67F731A4074
:102730000280704721B1028842F00102028004E069
:1027400002884FF6FE731A400280704731B1B0F82C
:10275000442042F40042A0F8442005E0B0F84420B0
:10276000C2F30E02A0F844207047000070B50024A8
:1027700000220023058C4FF6FE7635400584028C3E
:102780008388048B4FF68F752C40B51E2C400D8826
:102790002C43751E2A408D892A434D882A43104DAB
:1027A000A84202D00F4DA84213D14FF6F7752A4028
:1027B000CD892A434FF6FB752A408D882A434FF670
:1027C000FF652B404FF6FF552B400D8A2B434D8A5A
:1027D0002B43838004838D684563028470BD0000B1
:1027E00000000140000401400A460021018B4FF621
:1027F000F7731940114301837047000000220288DB
:10280000184B98420ED0184B98420BD0B0F1804F25
:1028100008D0164B984205D0154B984202D0154B64
:10282000984204D14FF68F731A404B881A43124BCB
:10283000984207D0114B984204D04FF6FF431A40FC
:102840000B891A4302804B68C3620B880385054BD2
:10285000984202D0044B984201D18B7A038601231F
:1028600083827047000001400004014000040040E2
:1028700000080040000C0040001000400014004020
:102880000146002901DB084670474842FCE700008A
:102890002DE9FE438046002417E023480088752870
:1028A0000CD1B8F1010F04D1FFF7BEFB2DF81400D5
:1028B00009E0FFF77BFB2DF8140004E0404600F030
:1028C00043F92DF81400601C84B2052CE5DB0024CC
:1028D00016E0601C85B20FE03DF814003DF81510BD
:1028E000884207DD3DF814703DF815002DF81400FE
:1028F0002DF81570681C85B2052DEDDB601C84B2C7
:10290000042CE6DB0026012405E03DF814003044E9
:1029100086B2601C84B2042CF7DB032096FBF0F037
:1029200087B23846BDE8FE83340000201CB5012183
:102930000420FFF799FB8020009000208DF8040010
:102940008DF8070069460D48FDF796FD0C48008894
:10295000752806D1FFF71CFB40F2FF30094948807B
:1029600005E000F07DF840F6FF700649488000F071
:102970000BF80120034908721CBD0000000802404A
:102980003400002024020020704700002DE9F05F91
:1029900004460D460120FFF77BFF06460520FFF7A2
:1029A00077FF07460120FFF773FF80460520FFF7FA
:1029B0006FFF8146A6EB0800FFF762FF1FFA80FA5F
:1029C000A7EB0900FFF75CFF1FFA80FB16480078B1
:1029D000824527DC14480078834523DC13480078BF
:1029E00001280ED106EB080000EBD071491009B2A6
:1029F000298007EB090000EBD071491009B2218052
:102A00000DE006EB080000EBD071491009B22180FF
:102A100007EB090000EBD071491009B229800120B1
:102A2000BDE8F09F0020FBE73B0000204C000020A9
:102A300010B5002400BF0949881EFFF7A7FF08B999
:102A4000142CF8DB601CC4B2142C05DB4FF0FF30F3
:102A50000249891F8880C88010BD00002A0200201A
:102A600000B587B001210B20FFF7FEFA0121080312
:102A7000FFF72AFB052203212F48FDF745FD05221C
:102A800004212D48FDF740FD052211462A48FDF797
:102A90003BFD3820059002208DF8180003208DF8AA
:102AA000190000208DF81A008DF81B0005A9224896
:102AB000FDF7E2FC4FF48070204908830590012067
:102AC0008DF8180003208DF8190000208DF81A00E9
:102AD0008DF81B0005A91948FDF7CEFC08200590CC
:102AE00000208DF8180005A91548FDF7C5FC002049
:102AF000ADF800004FF48270ADF802000020ADF890
:102B00000400ADF80600ADF808004FF40070ADF811
:102B10000A003820ADF80C000020ADF80E000720A8
:102B2000ADF8100069460748FFF7B6FC01210548DB
:102B3000FFF798FC07B000BD00040240000002400F
:102B4000000C02400030014070B505464FF4807023
:102B50000D494883802141EA0511C8B2FFF7BAFC4C
:102B60000020FFF7B7FC04464FF6FF7000EA04248C
:102B70000020FFF7AFFC204484B2E4104FF48070D3
:102B800001490883204670BD0000024001F4007234
:102B9000B2F5007F00D100BFCA430280704721B167
:102BA000828942F40052828104E082894DF6FF73EB
:102BB0001A408281704700002DE9FF4705460E4606
:102BC0000024A14600BFA046B08900B100BF2C8AF6
:102BD00024F44054F08804432C82AC8941F20C6008
:102BE0008443B08831890843718908430443AC8128
:102BF000AC8A24F44074B0890443AC826846FFF781
:102C000073FA2048854202D01F48854202D1DDF880
:102C10000C9001E0DDF80890A88910F4004F08D06E
:102C200009EBC90000EB091031684900B0FBF1F76E
:102C300007E009EBC90000EB091031688900B0FB1F
:102C4000F1F76420B7FBF0F004012009642101FBD7
:102C50001078A88910F4004F08D0322000EBC8008B
:102C6000B0FBF1F000F00700044308E0322000EB75
:102C700008106421B0FBF1F000F00F0004432C8138
:102C8000BDE8FF87001001400014014000BFFEE7CF
:102C900002490120096881F8540070477000002043
:102CA00003490020096881F85400FEF775BF000051
:102CB0007000002010B50446C168D4E90020172A2E
:102CC0000DD004DC0E2A0CD0142A07D104E0222AED
:102CD0000CD0282A02D10CE000F0A5FA0020E06018
:102CE00010BD2146BDE8104000F057BA6FF07040AB
:102CF000F5E7BDE8104000F006BA000000210F28FB
:102D000002D2024951F8201008467047640500209D
:102D100010B5002802D0FDF755FDC06910BD10B5F3
:102D2000002802D0FDF74EFD806910BD2DE9F04F5F
:102D30009BB04FF0000B5E46CDF820B0CDF824B02C
:102D4000CDF828B0FDF7F8FE18B100201BB0BDE8A3
:102D5000F08F6846FDF7CAFE0098C54DC54C401C73
:102D600011D0009800281DDB019800281ADBC24909
:102D70000098B1F900100844C04900900198B1F9D9
:102D8000001008441DE00198401C1BD120689DF8EC
:102D9000081000EB400005EB8000007A884207D164
:102DA0005846D3E70098401C0CD10198401C09D12B
:102DB000206800EB400055F8201005EB80000091E2
:102DC0004068019005A800F0F7F99DF809000F2868
:102DD00000D2206007AA12A92068FDF7F3FD12991E
:102DE0000098401A009007990198009A401A0190A3
:102DF000206800EB400055F8201091420AD105EB05
:102E00008000019A4168914204D1007A9DF808102F
:102E100088427DD0DDE900019DF80920FDF7DEFC48
:102E2000974F396809B1684688479648216850F835
:102E3000210018B9DDE9000100F0AAF906907A68CE
:102E400012B10699684690478F4F206807EBC00182
:102E50004868069A824201D0012200E000220DF16A
:102E60002009F0B1EAB1486800F07AFAC8B12068E8
:102E700007EBC000406800F068FA90B19DE80700D9
:102E800008AB07C31220CDF844900E90206807EBE2
:102E9000C00040680EA900F038FB206807EBC000B6
:102EA0004660069800F05CFA00287DD006992068FC
:102EB00007EBC002516000EB400005EB80009DF87D
:102EC0000810007ADFF8C0A18842AAF1780A5DD024
:102ED0000698C0B30698FDF74FFC9DF808101390B4
:102EE0008DF83410216801EB410105EB8101097A6D
:102EF0008DF83510B0F900200099891A0B91B0F9BE
:102F000002000199081A0C9013A8FDF743FC00E099
:102F1000AAE00BA8119011200E90206800EB400150
:102F200005EB810191E88C000492CDE914379DF8FE
:102F300008200A729DF8281031B10AEBC0014F68D1
:102F4000069A4A6001E021E000270AEBC000D0F8B1
:102F5000048006980EA900F0ABFA21680AEBC100C4
:102F60004368434501D04068069001EB410005EB02
:102F70008003DDE91412049807C33FB1384600F01E
:102F8000F4F818B121680AEBC100476020689DF889
:102F9000081000EB400805EB8802137A0B434BD076
:102FA0000C234FF0010B00E053E00AEBC0000E933E
:102FB00043685746DDF818C09C4515D043689BB15F
:102FC00009B1119608E055F8281008915168099147
:102FD0008DF82860CDF8449040680EA900F095FA6D
:102FE000206807EBC000466020689DF8081000EBE1
:102FF000400205EB82021172069951B39DE80E0062
:103000000DF12008A8E80E009DF8281021B10699BE
:1030100007EBC000416008E01C48007808B100F0F0
:10302000B5F8206807EBC00046600698CDF84490DC
:103030000EA900F06AFA0CE0069850B1069800F06C
:1030400084F930B19DE8070008AB07C310200E904B
:10305000EBE721689DE81C0001EB410005EB8000D7
:103060001CC0684600F084F805A800F0EDF997E66A
:10307000B4060020F00000209400002096000020FC
:103080003C010020DC050020580800202001002021
:1030900070B586B00D4606002CD0FDF76DFB009094
:1030A000846AA10723D5D0E90010CDE90110E0031F
:1030B00002D5304600F0D6F85DB128680390686804
:1030C000049003A9009800F07FF803A901A8FDF778
:1030D0001AFF314601A800F07FF840B140F6010028
:1030E0000440012C08D001A9304600F0B8F8684629
:1030F000FDF750FB06B070BD0098026A816901A817
:1031000000F00EF9F3E70021FFF7C2BFFEB5154648
:103110000E4604001CD0FDF72FFB0246009090F8ED
:103120002800800711D5314601A8FDF709FF60B1DD
:103130006846FDF72FFB2A4601A9204600F044FC13
:103140002046FFF7E5FD04460CE06846FDF722FB4C
:10315000FEBD2A4601A92046FFF7D8FF2046FDF70D
:1031600031FB046A002CF4D1FEBD00F035B900003B
:10317000054A01EB410102EB8101D0E9002380689F
:103180000A60C1E901307047D008002000F046B95C
:103190000A460146002000F063BD70B50C000546EC
:1031A00009D0FFF7BCFD002805D02146A560BDE889
:1031B000704000F05FB970BD02490A6802600860A3
:1031C00070470000F80000200B46B0F90220B0F96B
:1031D00000101846FDF77ABC38B50C460546204667
:1031E000FDF7CAFA0146009090F82800800703D442
:1031F0006846FDF7CFFA12E02846FDF784FE0098F6
:10320000806920B104466846FDF7C4FAE7E76846DE
:10321000FDF7C0FA204600F083FA002801DA00200A
:1032200038BD012038BD38B50C4600280AD0002C26
:1032300008D0FDF7A1FA2146009000F004F8684696
:10324000FDF7A8FA38BD00224A800A8082880388E8
:10325000D21A8A80C2884088101AC88070472022FB
:1032600000F0B2BB38B504001ED0FDF785FA00901F
:1032700090F82810890714D5406A20B1FDF7AEFBFD
:103280000099002048622046FFF742FD044606E010
:103290002046FFF7E7FF2046FDF794FA046A002C6A
:1032A000F6D16846FDF776FA38BD2DE9FF4198461C
:1032B000164607460D0031D00846FDF75DFA00902E
:1032C000846A0246A00726D5394601A8FDF738FED4
:1032D00008B340F601000440012C07D0424601A982
:1032E000284600F071FB0098C46912E0009843463C
:1032F000026A816901A8FFF7D8FFF4E7B4420AD057
:10330000424601A92046FFF701FF2046FDF75AFA81
:10331000046A002CF2D16846FDF73CFABDE8FF8153
:103320002023FFF7C2BF000070B50C46002550B146
:103330004CB100BFFDF746FA8069A04201D10125DA
:1033400001E00028F6D1284670BD10B50124FDF734
:1033500039FA90F82800C00600D50024204610BD98
:1033600070B5104D06460E4C286804EBC00041684D
:103370003046FFF7D9FF296804EBC102516829B133
:1033800000215268B24203D1012202E00121F8E794
:1033900000220143114301D0012070BD002070BD07
:1033A00068070020F000002090F828309B0711D516
:1033B000B0F900308B420DDCB0F904308B4209DBF0
:1033C000B0F90210914205DCB0F90600904201DB31
:1033D000012070470020704710B504460648C068B9
:1033E00006E0A04201D1012010BDFDF7EBF94069D4
:1033F0000028F6D110BD0000E8000020B0F9001050
:10340000B0F90420914205DCB0F90210B0F90600D1
:10341000814201DD00207047012070477FB5094DD2
:10342000074C286854F82000002808D01821009183
:10343000694600F01FF82968002044F821007FBD8C
:10344000DC050020F0000020094B1968002905D098
:103450000022814206D108680AB110607047002836
:10346000186070470A4609680029F2D170470000C9
:10347000F800002070B50D4C06460D462068142853
:103480000DDA3046FDF79EF901696E6041B12068A2
:10349000401C2060284688472068401E206070BD80
:1034A0002846BDE87040FFF705BC00003801002049
:1034B00070B50C460546FFF748FF002805D02146A9
:1034C0002846BDE87040FFF7D5BF70BD7FB5054603
:1034D0000E464868C9680391CDE901050D202C46C8
:1034E000009008E02046FFF71AFC040003D069466C
:1034F0000396FFF7DDFF2046FFF737FE0028F1D1E6
:1035000031462846FFF7D4FF7FBDF8B5CC680D469D
:10351000064684B1FDF730F90090B0F9000021684B
:10352000081A206000996068B1F90210401A6060C2
:103530006846FDF72FF929463046FFF7C7FFF8BD6B
:103540002DE9F0411B4D0C460646A968686B014405
:10355000491EA019884205D8016819B941680E446E
:1035600000F0D0FA686BA0420AD254F8040C271A73
:10357000386828B978680644384600F0C3FA3C46F3
:10358000304600F0ABF905EBC0073246002120467B
:103590003B6C00F015FE57F8400F083400B1446052
:1035A0002060002060603C6028683044286030461D
:1035B000BDE8F081300200202DE9F041054600F021
:1035C000A5F92B48C46BAC4202D8ED1C25F00304CE
:1035D000804600680C34A04202D20020BDE8F08191
:1035E00000F050FA0600F9D0204600F077F9424684
:1035F00011E000BF02EBC001096C59B18D686B6826
:10360000A3420BD2A96829B18D686B68A34205D289
:10361000002DF7D1401C1028ECD31FE0F5B1D8F8ED
:103620003C00191B0C301F46814200D23C46284604
:1036300000F068FA0421D8F8300001EBC60100233D
:10364000455022463146284600F0BAFDA74203DD28
:103650002919381BFFF774FF3046BFE7204600F0FA
:1036600073FA0028C0D0304600F02CFAB5E700000D
:10367000300200202DE9F041054640690E46342114
:10368000008801EB8000FDF72AF80746FDF774F883
:10369000044628688069FDF71DF9C1688A6A082117
:1036A0009047032810DB04280DDD082809DD1028C9
:1036B00003DD20200421A06108E010200221A06188
:1036C00004E0082000E004200121A0612161686974
:1036D0000088E06148436061FDF72EF8616981422E
:1036E00000DD606104F1340000212060C4E9027152
:1036F00084F83060012E05D0E1696FF0030202EB1F
:103700008101084460602046BDE8F0810349884299
:1037100002D101F13C0070470C3870476C06002064
:103720000146064A002000BF52F820308B4204D0E8
:10373000401C0F28F8DB4FF0FF3070476405002075
:103740002DE9F047234DA86AF8B1E8680A21B0FBDB
:10375000F1F1491C0C18E000FFF72EFF070036D0EE
:103760004FF00409296B09EBC700D5F828800E58E3
:10377000E8680836C2003046FCF722FDAF622E63CF
:10378000E8684B460146621E0DE01348D0E901107F
:103790000830B1FBF0F4A41CDDE74F1C03EBC10CB7
:1037A000491C46F80C709142F7D309EBC101002285
:1037B000725028626968201A0844EC6068605FEA09
:1037C000080001D0FCF790FF0020BDE8F087012041
:1037D000FBE7000030020020580000202DE9F041F6
:1037E0000C46C96886B049B306685EB394F83000E9
:1037F000012829D0E2696FF00303206803EB8202FD
:10380000656810446060276A2D1D2846A269FDF78F
:10381000E6FA61694FF000080291CDE90358CDF84E
:103820001480A1690120CDE90001F068E368E26A33
:10383000456839463046A847C4F80C80002006B0D9
:10384000BDE8F0810120FAE725686560A76ADCE73A
:103850002DE9F0470D46B3F9041006461C46914683
:10386000B14220DCB4F90800B0421CDBB4F9060018
:10387000A84218DCB4F90A20AA4214DB2F1A711AE4
:1038800088463A466069FDF743F860B1B4F908002C
:10389000B4F90410401A401C00FB0780203454F88F
:1038A0002000BDE8F087D9F800000028F9D0C168F1
:1038B0002A464B693146BDE8F047184770B50024E9
:1038C0000D460F2807DAFDF705F820B1C1688A6AAE
:1038D000294690470446204670BD00000146054A2F
:1038E0000F2000BF02EBC003DB6B8B4201D9401EEF
:1038F000F8D57047300200200349884202D1A1F177
:103900003C0070470C307047A80600202DE9F041BC
:10391000294C94F8240000284CD1284E012584F825
:10392000245071684FF42050814200D9014630681C
:1039300000F0B8FB10B12248FCF7DEFF306818B980
:103940001F486430FCF7D8FF1C491E48083908603E
:103950000846FDF71FFB5A20E06100205FF01001D0
:1039600001FA00F204EBC003401CDA631028F7D31D
:10397000D6E900100223C4E902030E18143EC4E97C
:103980000C6100224FF0040C5B1E05E0571C0CEB91
:10399000C20E521C46F80E709342F7D8256263603F
:1039A000FFF7CEFDFFF7CCFE18B10548DC30FCF781
:1039B000A3FFE562BDE8F08130020020580000203E
:1039C000F0470008493A0008FEB514460D46064681
:1039D000FCF7F8FE0090836A980731D52846FFF778
:1039E0000DFD00282CD040F601000340012B27D00C
:1039F0003046FCF7C1FE02460090294601A8FDF7BB
:103A00009FFA01A8FFF7FAFCB8B1009944F220022E
:103A1000886A104205D0083101AA0846FDF72AF845
:103A20000BE0DDE9012320438862C1E90223054957
:103A30008888401C8880FDF7A9F86846FCF7AAFE34
:103A4000FEBD0000E80000200C4910B5002081F800
:103A500024000146094880223C30FDF7A3FABC222D
:103A600000210648FDF79EFA0C2200210448FDF7CC
:103A700099FA03492020886010BD00003002002020
:103A80005800002010B50E4C6168E06A814209D8E8
:103A9000401EE062FFF754FEE16A491CE16208B192
:103AA000002010BD60680422401E6060206A216B07
:103AB00002EBC0028A582262012201F8302010BDB8
:103AC00030020020074910B54A680424521C4A609D
:103AD0000A6B04EBC0040B6A1351002302F8303068
:103AE000086210BD3002002013B500680199FFF78D
:103AF00075FE0198846801A8FCF74CFE2046FCF78F
:103B0000F3FD1CBD70B504464068FFF7E7FE0C4DA1
:103B1000064660682968884202D90A48FCF7ECFE2C
:103B20002868616805EBC602401A2860D4E90201E2
:103B3000403200B1416009B1086070BD106070BDD5
:103B4000300200206C4600082DE9F05FDFF8AC8001
:103B50008346D8F83440D8F80810601E0F186568FE
:103B600015B92748FCF7C8FE2068E8BB6619BE42B5
:103B70003ED2D6E9000930B1D8F8302012F8302012
:103B8000012A05D034E01E488030FCF7B5FE2FE056
:103B9000D8F82810884201D1012000E00020824698
:103BA0002046FFF7AFFF3068D8F83010042202EB50
:103BB000C0004A460C5031462046FCF701FBBAF1E2
:103BC000000F05D0D8F83010321B891AC8F8301011
:103BD00004EB09012846FFF7B3FCBBF1000F06D048
:103BE000834504D8002000E002E0BDE8F09F4D4688
:103BF0002C44BC42B3D30120F5E700003002002082
:103C0000F04600082DE9F8431F4690460E46050091
:103C10000AD0FCF7B1FD3A4641460090FFF7C4FBDD
:103C200028B10098C46912E00020BDE8F883684616
:103C3000FCF7B0FDF8E73B46424631462046FFF729
:103C4000E1FF00B105462046FCF7BCFD046A0CB15B
:103C5000B442F0D16846FCF79DFD2846E5E7000038
:103C600070B50646064814460D460068FFF746F84C
:103C700023462A463146BDE87040FFF7C3BF000027
:103C8000F0000020064910B509684A6B824206D050
:103C90004863FDF7BDFCBDE81040FDF771BF10BDE6
:103CA00070000020064910B509680A6B824206D0F0
:103CB0000863FDF7ADFCBDE81040FDF77BBF10BD0C
:103CC0007000002030B509490B681A7C82EA0004B4
:103CD000640707D59C6BDB6B25681B6823600B684A
:103CE000DB6B1D6009680874104630BD7000002051
:103CF0000A490B48D1E90032934202DAC0E908329E
:103D000001E0C0E90823D1E902218A4202DAC0E9D0
:103D10000A217047C0E90A12704700000005002020
:103D2000980000202DE9F74FA8B0FCF725FD03907F
:103D300001680891B0F9042029998A420AD1B0F9A2
:103D400006002A99884205D103A8FCF723FD2BB071
:103D5000BDE8F08F0020FCF761FE2590089882698D
:103D60009A4818920168487C1790824200D04A74A1
:103D70000398B0F904100991B0F90820B0F906B021
:103D8000A2EB0101B0F90A2001F1010AA2EB0B013B
:103D900001F101012491017C89077DD541690C91D4
:103DA00000F120011B91099A2999A1EB02082A9997
:103DB000B8F1000FA1EB0B074FF0FF3109DD012235
:103DC00010920022554616926A1ECDF838801E9237
:103DD00009E0AAF10102169200220E92169A0D46EF
:103DE000424410911E92002F09DD0121DDF89090D0
:103DF0001D91A9F101011F9700240B9107E01D916E
:103E0000249C89460021641E1F91E1190B91C06812
:103E1000FCF7B2FC2190089804A9C068026B0898CE
:103E2000904710990398FFF725FC1A901099039872
:103E3000FFF720FC2290A1E01F98844204DB0B983E
:103E4000844201DC012000E0002026900BEB0400FE
:103E500038440790169E8CE000202390224631467D
:103E60000C98FCF755FD209000287DD01B9800EBA6
:103E7000860104FB0AF001EB80000F90099881197C
:103E800001EB080006900E98864208DB1E988642D9
:103E900005DC269818B100E07EE0012000E000205B
:103EA0000090BDF910100698814215DCBDF9121082
:103EB0000798814210DCBDF91410069881420BDB93
:103EC000BDF916100798814206DB0146039B089A4C
:103ED0000698FFF7BDFC2390009840B1B6EB0801AF
:103EE00020D4E21B1ED40C98FCF712FDD0B909981F
:103EF000BDF91020304404EB0B01824212DCBDF905
:103F000012208A420EDCBDF9142082420ADBBDF980
:103F100016208A4206DB229A00920F9A089B1268AA
:103F200000F056F8BDF91010069881421ADCBDF970
:103F300012100798814215DCBDF9141006988142D1
:103F400010DBBDF91610079881420BDBDDE920017B
:103F50000DF1180C51F820201A980090BCE80B00C5
:103F600000F036F80F9900E001E0239808601098FF
:103F70000644AE427FF470AF1D9804444C457FF474
:103F80005BAF1A990398FFF7AFFD22990398FFF7EB
:103F9000ABFD21A8FCF7FEFB0398299981802A99A3
:103FA000C18029995144491E0181249A2A991144BA
:103FB000491E4181DDE91710884203D008460349B4
:103FC000096848742598FCF729FDBDE670000020BB
:103FD0002DE9F0410646069C0D461746606AA84248
:103FE00005D194F93010206A0844B04203D021462C
:103FF0001846FFF7F3FB6068076094F930106068BB
:1040000000EB81006060E06808B9C4E90A65401C03
:10401000E060C4E90865BDE8F081000070B5144CAB
:104020000546D4E90010814212D0FFF76FFB297AD0
:10403000027A91420CD12168814209D0FFF766FBD8
:10404000297A007A814203D16068FFF75FFB6060E4
:104050000ECD606880E80E00FFF74EFC60602168BE
:10406000814203D10846FFF747FC206070BD000085
:104070002401002030B40446094A0B46401C07D0F6
:10408000581C05D09068411C02D0D1684D1C02D14B
:104090004FF0FF300146C2E9024330BCFCF752BE8C
:1040A00098000020F0B58E080023FF22054600246A
:1040B00006E0E718B7FBF2FC02FB1C7780C5641C26
:1040C000B442F6D3054600240BE004EB030CBCFB22
:1040D000F2FE80CD02FB1ECCBC4501D00320F0BD1A
:1040E000641CB442F1D35B1C022BDFD34E080023C7
:1040F0000546002407E0E718B7FBF2FC02FB1C773B
:1041000025F8027B641CB442F5D3054600240CE07C
:1041100004EB030CBCFBF2FE35F8027B02FB1ECC69
:10412000BC4501D00220F0BD641CB442F0D35B1C3E
:10413000022BDDD300230546002407E0E618B6FB7A
:10414000F2F702FB176605F8016B641C8C42F5D38D
:10415000054600240CE000BFE718B7FBF2FC15F899
:10416000016B02FB1C77B74201D00120F0BD641C3B
:104170008C42F1D35B1C022BDDD30022134602E0FC
:1041800000F8013B521C8A42FAD30020F0BD000027
:104190000A4A816952F82130834202D1036842F809
:1041A0002130416809B102680A60016809B14268BA
:1041B0004A600021016041607047000098030020C0
:1041C000006180E80E00104440F8042C704702E0C3
:1041D00008C8121F08C1002AFAD170477047002092
:1041E00001E001C1121F002AFBD1704780F3108843
:1041F0007047000010B5044604B910BD012C00D171
:1042000002240120FFF7F2FF08480460002008495B
:104210000870FFF7EBFF04E005480078012800D1A3
:1042200000E0F9E700BF00BFE7E700000000002062
:104230000400002010B5FEF759FA00F047F900F02D
:104240000DF800F0BFF8FDF727FCFEF76FFB00F05C
:10425000F1F801210803FDF707FF10BD10B500F0CC
:1042600047F800F001F810BD1CB501210520FDF74D
:10427000FBFE00208DF804008DF806008DF8070085
:1042800002208DF805000003009069461648FCF7EF
:10429000F3F80120009069461348FCF7EDF802207E
:1042A000009069461048FCF7E7F80820009069463E
:1042B0000D48FCF7E1F81020009069460A48FCF729
:1042C000DBF80420009069460748FCF7D5F8022087
:1042D000009069460548FCF7CFF801200090694638
:1042E0000248FCF7C9F81CBD00080240000002406B
:1042F0000021284A9172D1721173002018E06421C4
:10430000254A02EB001211810221234A02EB00121E
:1043100011710021204A02EB001291721E4A02EB39
:104320000012D1721C4A02EB00121173411CC8B278
:104330000A28E4DB642218490A87052281F83B2019
:104340006422A1F84820052281F84B206422A1F8BC
:104350005820052281F85B206422A1F868200522FC
:1043600081F86B200D490C4A11600D4911610D490E
:1043700011620D4911630D4911640D4911650D4913
:1043800011660D4911670D49C2F880100C49C2F839
:1043900090107047E401002044010020011500083E
:1043A0003115000849150008611500087915000845
:1043B00091150008A9150008C1150008D9150008B5
:1043C000191500081CB501211020FDF74DFE012034
:1043D00000F0CCF8022000F0C9F8032000F0C6F885
:1043E000042000F0C3F801208DF8040000208DF8AF
:1043F00006008DF8070003208DF8050004200090CA
:1044000069460B48FCF738F80820009069460848D0
:10441000FCF732F81020009069460548FCF72CF8AC
:104420002020009069460248FCF726F81CBD0000D9
:104430000010024070B5002016E0002100EB4002A1
:104440001E4B03EB8202516000EB400203EB820241
:10445000916000EB400203EB8202517000EB4002DE
:1044600003F82210411CC8B20428E6DB144909688D
:104470004FF47A73B1FBF3F2511EB1F1807F00D398
:104480001BE0511E4FF0E023596159170F230029FB
:1044900007DA1C07260E0B4C01F00F052D1F665581
:1044A00003E01C07250E084C655400BF00214FF0A7
:1044B000E02399610721196100BF70BDF40100205C
:1044C0002000002018ED00E000E400E000B587B017
:1044D00001210846FDF7C8FD01211020FDF7F4FD7C
:1044E000072209211F48FCF70FF807220A211D485F
:1044F000FCF70AF800208DF81A0001208DF81B0047
:1045000002208DF818000002059002208DF8190095
:1045100005A91448FBF7B0FF02208DF818004002EF
:10452000059005A90F48FBF7A7FF4FF4E130019074
:104530000020ADF80800ADF80A00ADF80C00ADF8A9
:1045400010000C20ADF80E0001A90748FEF734FB5F
:1045500001210548FEF723FB40210348FEF716FB27
:1045600007B000BD0000024000100140411EC8B26B
:1045700018B904210A4A118310E0012803D1082147
:10458000074A11830AE0022803D11021044A11834B
:1045900004E0032802D12021014A11837047000062
:1045A00000100240012806D11049496981F0040138
:1045B0000E4A516119E0022806D10C49496981F07F
:1045C00008010A4A516110E0032806D107494969E8
:1045D00081F01001054A516107E0042805D1034923
:1045E000496981F02001014A516170470010024081
:1045F00010B506480088752805D10548007820B90F
:10460000FCF7CCFA01E0FCF7C9FA10BD3400002039
:104610004D0000207047416851B14168491E41601A
:1046200006D1012141700178012901D181684160E1
:1046300070470024FFF7FEFD17E0012407E0E0B219
:10464000FFF7B0FF4FF47A70FFF7D4FD641C052C20
:10465000F5DB012407E0E0B2FFF7A4FF4FF47A7026
:10466000FFF7C8FD641C052CF5DBE6E72E2E5C2E5B
:104670002E5C2E2E5C5574696C69746965735C548C
:10468000686972645F50617274795C5354656D57E8
:10469000696E353230645C4755495C436F72655CC6
:1046A0004755495F416C6C6F632E633A0A496C6CE5
:1046B0006567616C206D656D6F7279206F706572D2
:1046C0006174696F6E20696E205F52656D6F7665EB
:1046D00046726565426C6F636B28292E20457865AC
:1046E000637574696F6E2073746F707065642100F8
:1046F0002E2E5C2E2E5C2E2E5C5574696C697469AE
:1047000065735C54686972645F50617274795C535C
:1047100054656D57696E353230645C4755495C436A
:104720006F72655C4755495F416C6C6F632E633AED
:104730000A496C6C6567616C20626C6F636B2073F7
:10474000697A6520696E205F52656D6F7665486F86
:104750006C65734E657728292E20457865637574DE
:10476000696F6E2073746F707065642100000000C3
:104770002E2E5C2E2E5C2E2E5C5574696C6974692D
:1047800065735C54686972645F50617274795C53DC
:1047900054656D57696E353230645C4755495C43EA
:1047A0006F72655C4755495F416C6C6F632E633A6D
:1047B0000A496C6C6567616C206672656520626C85
:1047C0006F636B20696E205F52656D6F7665486F11
:1047D0006C65734E657728292E204578656375745E
:1047E000696F6E2073746F70706564210000000043
:1047F0002E2E5C2E2E5C2E2E5C5574696C697469AD
:1048000065735C54686972645F50617274795C535B
:1048100054656D57696E353230645C4755495C4369
:104820006F72655C4755495F416C6C6F632E633AEC
:104830000A4D656D6F7279207465737420666169C5
:104840006C656420696E205F496E69744F6E6365A4
:1048500028292E002E2E5C2E2E5C2E2E5C5574697F
:104860006C69746965735C54686972645F506172E5
:1048700074795C5354656D57696E353230645C47AA
:1048800055495C436F72655C4755495F416C6C6F7D
:10489000632E633A0A4E6F206D656D6F72792061E9
:1048A0007661696C61626C6520696E205F496E6932
:1048B000744F6E636528292E204578656375746989
:1048C0006F6E2073746F7070656421002E2E5C2EE5
:1048D0002E5C2E2E5C5574696C69746965735C542A
:1048E000686972645F50617274795C5354656D5786
:1048F000696E353230645C4755495C436F72655C64
:104900004755495F416C6C6F632E633A0A4E6F20C6
:104910006D656D6F727920666F7220626C6F636B6C
:104920007320617661696C61626C6520696E205FDD
:10493000496E69744F6E636528292E20457865633A
:104940007574696F6E2073746F70706564210000F8
:104950002E2E5C2E2E5C2E2E5C5574696C6974694B
:1049600065735C54686972645F50617274795C53FA
:1049700054656D57696E353230645C4755495C4308
:104980006F72655C4755495F416C6C6F632E633A8B
:10499000496C6C6567616C20626C6F636B20736936
:1049A0007A6520696E204755495F414C4C4F435F03
:1049B0004765744669786564426C6F636B28292E7D
:1049C00020457865637574696F6E2073746F7070BD
:1049D00065640000A53C0008853C0008C53C000853
:1049E0000000000000000000202020202000200007
:1049F00048484800000000005050F850F85050005F
:104A00002078A07028F02000C0C81020409818001E
:104A10006090A040A8906800602040000000000066
:104A20001020404040201000402010101020400076
:104A3000005020F820500000002020F82020000026
:104A40000000000000602040000000F800000000AE
:104A5000000000000060600000081020408000009E
:104A6000708898A8C88870002060202020207000DE
:104A7000708808304080F80070880830088870001E
:104A800010305090F8101000F880F008088870007E
:104A9000304080F088887000F808102040404000C6
:104AA0007088887088887000708888780810600026
:104AB00000606000606000000000606000602040F6
:104AC00010204080402010000000F800F800000096
:104AD00080402010204080007088081020002000B6
:104AE00070880868A8A87000708888F8888888008E
:104AF000F08888F08888F000708880808088700056
:104B0000E09088888890E000F88080F08080F8004D
:104B1000F88080F08080800070888080988878009D
:104B2000888888F8888888007020202020207000DD
:104B300038101010109060008890A0C0A0908800DD
:104B4000808080808080F80088D8A8A88888880025
:104B50008888C8A8988888007088888888887000A5
:104B6000F08888F08080800070888888A89068002D
:104B7000F08888F0A09088007088807008887000A5
:104B8000F8202020202020008888888888887000CD
:104B90008888888888502000888888A8A8A850001D
:104BA00088885020508888008888885020202000DD
:104BB000F80810204080F8007040404040407000ED
:104BC00000804020100800007010101010107000BD
:104BD000205088000000000000000000000000F8E5
:104BE0004020100000000000000070087888780065
:104BF0008080B0C88888F0000000708080887000D5
:104C0000080868988888780000007088F88070002C
:104C1000304840E0404040000000788888780870C4
:104C20008080B0C888888800200060202020700024
:104C30001000301010109060808090A0C0A09000F4
:104C400060202020202070000000D0A888888800E4
:104C50000000B0C8888888000000708888887000CC
:104C60000000F08888F08080000078888878080844
:104C70000000B0C880808000000078807008F000DC
:104C80004040E04040483000000088888898680034
:104C9000000088888850200000008888A8A850005C
:104CA00000008850205088000000888888780870AC
:104CB0000000F8102040F8001020204020201000B4
:104CC00020202020202020004020201020204000F4
:104CD00068900000000000001820000000000000A4
:104CE000C0200000000000007088000000000000EC
:104CF000500000000000000068900000000000006C
:104D00000000006020207000006090F08888B08073
:104D100020007088F8888800200070087888780063
:104D20003860A0B8E0A0B800704848E84848700073
:104D3000E0407048487040E00000D02878A058005B
:104D4000A040A010788870006020302830207000CB
:104D5000708898A8C888700000007098A8C8700073
:104D600000007088F88888000000F880E080F80073
:104D7000000070202020700000007088888870007B
:104D80000000888888887000000088C8A89888007B
:104D9000200020202020200020002040808870005B
:104DA0001820000000000000C020000000000000EB
:104DB0002050000000000000500000000000000033
:104DC00068900000000000000000000000000020CB
:104DD0000000000000000000002070A0A0A87020CB
:104DE000304040E04048B0000000887050708800BB
:104DF0008850F820F82020002020200020202000CB
:104E00003048205020906000880000000000000022
:104E1000F888A8B8A888F8007008788870000000A2
:104E2000002850A050280000000000F808080000EA
:104E30000000007000000000F888A88898A8F8001A
:104E4000F8000000000000002050200000000000DA
:104E5000002070200070000060902040F0000000F2
:104E6000E0106010E00000001820000000000000CA
:104E70000000888888C8B08078989878181818003A
:104E8000000000303000000040C04040E000000062
:104E9000708888887000000000A0502850A0000092
:104EA0008890A050B05078108890A040B808103872
:104EB000C040C048D82838080088502050880000DA
:104EC000002000F800200000103070FC703010004E
:104ED000203038FC38302000002070F820200000FE
:104EE000002020F87020000000082868F8602000EA
:104EF00000040408089050209D00FFFF9E00FFFF63
:104F00009F00FFFFA000FFFFA100FFFFA200FFFF27
:104F1000FFFFFFFFFFFFFFFFFFFFFFFFFFFFFFFFA1
:104F2000FFFFFFFFFFFFFFFFFFFFFFFFFFFFFFFF91
:104F3000FFFFFFFFFFFFFFFF7E00FFFF7600FFFF89
:104F40007F00FFFF8000FFFF8100FFFF8200FFFF67
:104F50008300FFFF8400FFFF8500FFFF8600FFFF47
:104F60008700FFFF8800FFFF8900FFFF8A00FFFF27
:104F70008B00FFFF8C00FFFF8D00FFFF8E00FFFF07
:104F80008F00FFFF9000FFFF9100FFFF9200FFFFE7
:104F90009300FFFF9400FFFF7D00FFFF9500FFFFE0
:104FA0009600FFFF9700FFFF9800FFFF9900FFFFAB
:104FB0009A00FFFF7700FFFF700079007000780013
:104FC00070007A0070007C0070007B006600FFFFBC
:104FD0006800FFFF23007D007100790071007800F8
:104FE00071007A0071007B00720079007200780015
:104FF00072007A0072007B006900FFFF75007C0080
:10500000730079007300780073007A0073007C00ED
:1050100073007B009B00FFFF6E00FFFF74007900B0
:105020007400780074007A0074007B003900780006
:105030006A00FFFF6500FFFF4100600041005F0064
:105040004100610041006300410062006700FFFF12
:105050006B00FFFF43007D004500600045005F00DE
:1050600045006100450062006400600064005F006C
:1050700064006100640062006C00FFFF4E0063008A
:105080004F0060004F005F004F0061004F00630061
:105090004F0062009C00FFFF6F00FFFF55006000A3
:1050A00055005F00550061005500620059005F0027
:1050B0006D00FFFF590062009000FF00F84E0008ED
:1050C000E0490008E0490008B850000820007E00D0
:1050D000060601005505000889060008A10600081B
:1050E000A7060008000000000000000008080101F9
:1050F000C0500008070507001851000800000020F4
:1051000044010000400200086851000844010020EA
:10511000440C0000DE41000801112D0102030404CB
:105120004506070809AC7A030A1B2917140140F049
:10513000139001820505191001E0016204134D1A54
:105140001408D4501408EC02022C205AFF01012C40
:1051500013D44912080918920131136C062A20044D
:08516000411BD50D5CF10000BC
:040000050800018965
:00000001FF
