:020000040800F2
:10000000900D002089370008471A0008491A000897
:100010004D1A0008511A0008551A00080000000087
:10002000000000000000000000000000591A000855
:100030005B1A0008000000005D1A0008D3280008C1
:10004000A3370008A3370008A33700085D3600086F
:10005000A3370008A3370008CB2F0008A3370008F8
:10006000A3370008A3370008A3370008A337000808
:10007000A3370008A3370008A3370008A3370008F8
:10008000A3370008A3370008A3370008A3370008E8
:10009000A3370008A3370008A3370008A3370008D8
:1000A000A3370008A3370008A3370008A3370008C8
:1000B000A3370008A3370008A3370008A3370008B8
:1000C000A3370008A3370008A3370008A3370008A8
:1000D000A3370008A3370008A3370008A337000898
:1000E000A3370008A3370008A3370008A337000888
:1000F000A3370008A3370008A3370008A337000878
:10010000A3370008A3370008A3370008A337000867
:10011000A3370008A3370008A3370008A337000857
:10012000A3370008A3370008A3370008A337000847
:10013000DFF80CD003F08CFB00480047391A0008A8
:10014000900D002031490143314A1160704770B56C
:10015000002100230F22C4780CB32D4C246804F432
:10016000E064C4F5E064210AC1F10403CA404478A4
:1001700004FA03F18478144021430901254C0678E0
:10018000A155047804F01F050124AC4005786D11D9
:100190004FF0E02606EB8505C5F8004109E004783C
:1001A00004F01F050124AC401B4D0678761145F87C
:1001B000264070BD194A0A400243154B1B1F1A60A6
:1001C000704739B1124A121D12680243104B1B1DB1
:1001D0001A6006E00E4A121D126882430C4B1B1D6A
:1001E0001A607047042808D14FF0E021096941F0F6
:1001F00004014FF0E022116107E04FF0E0210969AE
:1002000021F004014FF0E022116170470000FA056F
:100210000CED00E000E400E080E100E080FFFF1F63
:1002200010B5012000F0A8FF002000F0A5FF10BDD0
:100230002A49086070472949091F08607047274903
:1002400084310860704701460020254A10884FF627
:100250007F4210400843224A108070470146002028
:100260001F4A10884FF68072104008431C4A1080C5
:10027000704708B500220092194A2C3A0092009A61
:1002800002440092009A116008BD08B501460020A2
:10029000009013482C380090009808440090009873
:1002A000008808BD0D489C300068C0B270470C48FB
:1002B0000830008840F00100094908310880704783
:1002C0000648A0300068C0B2704705480830008872
:1002D00040F00200024908310880704704860D4250
:1002E0002C6C0040002044490860091D0860091D6D
:1002F0000860091D086041483F4914310860704793
:1003000000213D498279002A3AD00A4612680368E2
:100310009A430B461A600A1D126803689A430B1D24
:100320001A60027911440A6803681A430A60324A63
:100330000832126803689A432F4B08331A601A1D5B
:10034000126803689A432C4B0C331A604279102AC6
:100350000ED11A1F126803681A43274B08331A601C
:100360001A1D126803681A43234B0C331A600DE000
:100370002149427911440A6803681A430A6005E07A
:10038000027911440A6803689A430A6070470021A1
:10039000016001710C214171002181717047164982
:1003A000103109680143144A103211607047014648
:1003B0000020114A143212680A4201D0012000E0E4
:1003C000002070470C491431086070470146002036
:1003D0000022094B1B6803EA0102074B14331B6818
:1003E0000B4202D00AB1012000E000207047024910
:1003F000143108607047000000040140FFFF0F0047
:1004000030B943F2DB014FF0204242F8201005E002
:1004100043F2D2014FF0204242F820106FF07042B8
:10042000411C4FF0204343F8212011461A4602EBAD
:100430008002C2F80411704710280AD118214FF029
:1004400020421166402151664FF0FC319166D16621
:1004500010E01821F84A11604FF040014FF020429F
:10046000C2F884104FF0FC31F44A11604FF0204282
:10047000C2F88C1070471820F14908604FF0000056
:100480004FF02041C1F8A4004FF0FC30ED49086066
:1004900001F10401086001F1040108607047D0E92E
:1004A00001121143C26811430269114342691143A9
:1004B00082691143C2691143026A1143426A1143BE
:1004C000826A1143C26A1143026B11434FF0204309
:1004D000026843F822108168082908D11A46016889
:1004E00052F8211041F04001026843F82210416B9C
:1004F0000968426B526841EA0211426B926841EA14
:100500000221426B928941EA0241426B128A41EA1E
:100510000251426B127D41EA0261426B92691143C2
:100520000268521C4FF0204343F82210C16AB1F513
:10053000804F1AD1816B0968826B526841EA0211BF
:10054000826B926841EA0221826B128A41EA02516F
:10055000826B127D41EA0261826B926911430268EB
:1005600003EB8202C2F8041108E06FF070414FF013
:100570002043026803EB8202C2F80411704730B5D1
:10058000002100220023446844F0080485682C43BD
:10059000C5682C4305692C43456944EA45248569AF
:1005A00044EA4531C4692468C5696D6844EA052494
:1005B000C5692D8944EA0544C5692D7B44EA056275
:1005C000046A2468056A6D6844EA0524056A2D8971
:1005D00044EA0544056A2D7B44EA05630468102C4F
:1005E00005D14FF020442166A266E36607E0924CF5
:1005F00021604FF02044C4F88820934C236030BD24
:10060000016841F01001426841EA4221826841EAF2
:1006100042318B4A1160C1680968C268526841EA78
:100620000221C268128941EA0241C268127B41EA92
:100630000261844A1160016909680269526841EAED
:1006400002210269128941EA02410269127B41EAF0
:1006500002617E4A1160416909684269526841EA53
:1006600002214269128941EA02414269127B41EA50
:1006700002614FF02042C2F8B010704700210160C3
:100680000221416000218160C1600161416181619D
:10069000C16101624FF480514162490081620021D1
:1006A000C16201630F21426B1160426B5160FF21F7
:1006B000426B91600F21426BD160426B1161426BC2
:1006C00051610021426B91610F21826B1160826B3D
:1006D0005160FF21826B91600F21826BD160826B30
:1006E0001161826B51610021826B91617047102111
:1006F0000160002141608160C160016141618161EF
:10070000FC21C2691160C2695160C2699160C2690D
:10071000D160026A1160026A5160026A9160026AE5
:10072000D16070470021016041608160FC21C26896
:100730001160C2685160C2689160C268D16002698C
:10074000116002695160026991600269D160426979
:10075000116042695160426991604269D16070479D
:1007600051B14FF0204252F8202042F001024FF0E8
:10077000204343F8202009E04FF0204252F8202087
:10078000334B1A404FF0204343F82020704799B173
:10079000102808D14FF02042126E42F004024FF0B0
:1007A00020431A661DE0244A126842F004024FF00A
:1007B0002043C3F8802014E0102809D14FF02042D4
:1007C000126E234BDB1E1A404FF020431A6608E0DE
:1007D000194A12681F4B02EA03024FF02043C3F884
:1007E0008020704740B11649096841F004014FF07C
:1007F0002042C2F8A01008E011490968154A01EA30
:1008000002014FF02042C2F8A010704799B11028A1
:1008100008D14FF02042126E42F040024FF02043C8
:100820001A662DE0044A126842F040024FF020435D
:10083000C3F8802024E00FE0800000A0880000A022
:10084000A00000A0A80000A08C0000A0AC0000A0A8
:10085000FEFF0F00FBFF0F00102808D14FF02042D1
:10086000126E684B1A404FF020431A6608E0664A41
:100870001268644B02EA03024FF02043C3F8802061
:10088000704701460020102903D14FF02042506FDD
:1008900001E05E4A1068704710B5F2B1102807D128
:1008A0004FF020435B6E0B434FF02044636632E011
:1008B000B0F5807F08D1564B1B6843EA01034FF027
:1008C0002044C4F8843026E0524B1B6843EA0103FD
:1008D0004FF02044C4F8A4301DE0102807D14FF099
:1008E00020435B6E8B434FF02044636613E0B0F50A
:1008F000807F08D1464B1B6823EA01034FF0204458
:10090000C4F8843007E0434B1B6823EA01034FF02F
:100910002044C4F8A43010BD10B5024600200023C6
:10092000102A03D14FF02044636E07E0B2F5807FB8
:1009300002D1374C236801E0364C23680B4201D0CA
:10094000012000E0002010BD102807D14FF0204208
:10095000526E8A434FF020435A6613E0B0F5807F11
:1009600008D12B4A126822EA01024FF02043C3F853
:10097000842007E0274A126822EA01024FF0204350
:10098000C3F8A420704770B502460020002300245D
:100990000025102A03D14FF02046736E07E0B2F510
:1009A000807F02D11A4E336801E01A4E336803EAA1
:1009B000010403EAD10514B10DB1012000E00020CB
:1009C00070BD102808D14FF02042526E22EAD102A9
:1009D0004FF020435A6613E0B0F5807F08D10C4AEF
:1009E000126822EAD1024FF02043C3F8842007E0C6
:1009F000084A126822EAD1024FF02043C3F8A4202B
:100A000070470000BFFF0F00800000A0940000A00E
:100A1000840000A0A40000A010B50446CA48844287
:100A200008D10121042000F08DFB0021042000F0FA
:100A300089FB46E0C548844208D10121082000F026
:100A400081FB0021082000F07DFB3AE0C048844291
:100A500008D10121102000F075FB0021102000F0CA
:100A600071FB2EE0BB48844208D10121202000F018
:100A700069FB0021202000F065FB22E0B64884429B
:100A800008D10121402000F05DFB0021402000F052
:100A900059FB16E0B148844208D10121802000F0C2
:100AA00051FB0021802000F04DFB0AE0AC4884425D
:100AB00007D10121801500F045FB0021A01500F0B1
:100AC00041FB10BD10B50121084600F03BFB0021A1
:100AD000012000F037FB10BD2DE9F0410246002552
:100AE0000026002000230024002791F803C00CF00A
:100AF0000F0591F803C01CF0100F03D091F802C04D
:100B00004CEA050591F800C0BCF1000F31D0146823
:100B100000202BE04FF0010C0CFA00F3B1F800C0FC
:100B20000CEA03069E4220D183004FF00F0C0CFA12
:100B300003F7BC4305FA03FC4CEA040491F803C034
:100B4000BCF1280F06D14FF0010C0CFA00FCC2F8E2
:100B500014C00AE091F803C0BCF1480F05D14FF072
:100B6000010C0CFA00FCC2F810C0401C0828D1D3BC
:100B70001460B1F800C0BCF1FF0F34DD54680020F0
:100B80002EE000F1080C4FF0010808FA0CF3B1F860
:100B900000C00CEA03069E4221D183004FF00F0CE7
:100BA0000CFA03F7BC4305FA03FC4CEA040491F881
:100BB00003C0BCF1280F05D100F1080C08FA0CF8AD
:100BC000C2F8148091F803C0BCF1480F07D100F1BE
:100BD000080C4FF0010808FA0CF8C2F81080401C0D
:100BE0000828CED35460BDE8F0814FF6FF71018034
:100BF000022181700421C170704702460020936871
:100C00000B4201D0012000E00020704701468868B7
:100C100080B2704702460020D3680B4201D0012009
:100C200000E0002070470146C86880B2704701614B
:100C30007047416170470AB1016100E0416170474E
:100C4000C16070474FF480320A43826181618261E2
:100C500082698269704702460020424B18684FF64D
:100C60008073184040EA021008433E4B18607047FA
:100C70003D49C8617047F0B50A46002300240021B1
:100C8000002500F00046B6F1004F02D1354EF16963
:100C900001E0344E7168C0F3034583B200F440169E
:100CA000B6F5401F08D121F070612E4E766826F00F
:100CB00070662C4F7E6012E000F48016B6F5801F3F
:100CC00006D1032606FA05F4A14341F0706106E05F
:100CD000460D360103FA06F6B14341F0706122B1C8
:100CE000460D360103FA06F6314300F00046B6F130
:100CF000004F02D11B4EF16101E01A4E7160F0BD50
:100D000030B500228B071C0F0F2303FA04F2154B9A
:100D100008338C1053F824309343124C08348D1050
:100D200044F8253023468C1053F824308C07240FC8
:100D300000FA04F423430B4C08348D1044F825309A
:100D400030BD0A490860704700080140000C0140AE
:100D5000001001400014014000180140001C014037
:100D6000002001400000014000002042DC00204241
:100D700010B50121080700F0F2F900214FF0805072
:100D800000F0EDF910BD2949086270472749086154
:100D9000704701460020264A106820F0E000084312
:100DA0001060704723490860704710B50246002064
:100DB0001F4B186820F00300104318601E4B1B687F
:100DC00043F004031C4C2360012901D130BF00E033
:100DD00020BF194B1B6823F00403174C236010BD80
:100DE0001348006840F00400114908600846006894
:100DF00040F0020008601048006840F004000E490E
:100E0000086000BF00BF30BF704701460020084A9D
:100E100052680A4201D0012000E0002070470449D6
:100E2000096841EA8001024A1160704700000E42E1
:100E300000700040A0000E4210ED00E0DD480068A8
:100E400040F00100DB49086008464068DA49084084
:100E5000D849486008460068D8490840D549086024
:100E60000846006820F4802008600846406820F4A6
:100E7000FE0048604FF41F0088607047CD49096844
:100E800021F48031CB4A11601146096821F4802198
:100E90001160B0F5803F03D0B0F5802F0ED106E091
:100EA000C449096841F48031C24A116007E0C14970
:100EB000096841F4A021BF4A116000E000BF00BFF3
:100EC000704710B501460022002300204A11012A74
:100ED00002D1B84C236806E0022A02D1B54C236A3D
:100EE00001E0B44C636A01F01F02012494401C42EB
:100EF00001D0012000E0002010BD38B50020009096
:100F00000024002500BF3120FFF7DBFF05460098D5
:100F1000401C00900098B0F5A06F01D0002DF2D0D9
:100F20003120FFF7CEFF08B1012400E00024204665
:100F300038BD014600209F4A106820F0F80040EAC2
:100F4000C100106070479E4908607047024600204B
:100F5000984B586820F47C1042EA01031843954BE3
:100F60005860704796490866704701460020914ACC
:100F7000506820F003000843506070478D48406877
:100F800000F00C007047014600208A4A506820F0AB
:100F9000F00008435060704701460020854A5068C1
:100FA00020F4E06008435060704701460020814A09
:100FB000506820F4605040EAC1005060704729B189
:100FC0007C4A527A02437B4B5A7204E0794A527A45
:100FD0008243784B5A7270477A49086070470146DD
:100FE0000020744A506820F4404008435060704725
:100FF0000021754A11706F4A82F82010012802D032
:10100000042808D103E001216F4A117004E0052192
:101010006D4A117000E000BF00BF70476B49086067
:1010200070476449096A0143624A1162704767491F
:1010300044390860704730B50021002200240023A5
:101040005C4D6D6805F00C0121B1042905D008291B
:1010500023D105E05E4D056022E05D4D05601FE097
:10106000544D6D6805F47012524D6D6805F480346E
:10107000022505EB92421CB9564D554305600BE025
:101080004C4D6D6815F4003F03D0524D554305603B
:1010900002E04F4D5543056002E04D4D056000BF35
:1010A00000BF444D6D6805F0F00109094A4D6B5CC5
:1010B0000568DD4045603F4D6D6805F4E061090A53
:1010C000454D6B5C4568DD4085603A4D6D6805F4C3
:1010D0006051C90A404D6B5C4568DD40C560354DC7
:1010E0006D6805F44041890B3C4D6B5CC568B5FBF0
:1010F000F3F5056130BD29B12E4A526902432D4BEB
:101100005A6104E02B4A526982432A4B5A61704764
:1011100029B1284A92690243264B9A6104E0254A84
:1011200092698243234B9A61704729B1214AD2695F
:101130000243204BDA6104E01E4AD26982431D4B10
:10114000DA61704729B11B4AD2680243194BDA6051
:1011500004E0184AD2688243164BDA60704729B11E
:10116000144A12690243134B1A6104E0114A1269CE
:101170008243104B1A617047144940390860704728
:101180000F49C86470470B49C87170470948406AE5
:1011900040F0807007494862704701460020054AC8
:1011A00092680A4201D0012000E000207047014906
:1011B00088727047001002400000FFF8FFFFF6FE43
:1011C00000004242D80042422010024080044242C5
:1011D00000127A0000093D000000002010000020ED
:1011E00029B14F4A128802434D4B1A8004E04C4A01
:1011F000128882434A4B1A8070474948001D008874
:1012000040F010004649091D088070474448001D01
:1012100000884FF6EF7108404149091D088070476A
:1012200000213F481C300188001F008841EA00402F
:10123000704700B50246FFF7E0FF100C384918313F
:101240000880091D0A80FFF7E1FF00BD00B50246D6
:10125000FFF7D3FFC2F30340314908310880091D6D
:101260000A80FFF7D3FF00BD00B50246FFF7C5FFB8
:10127000100C2B4920310880091D0A80FFF7C6FF9A
:1012800000BD00202649103109880907080B2449B0
:10129000143109880843704700BF2148001D0088A9
:1012A00010F0200FF9D070471D48001D00884FF640
:1012B000F77108401A49091D088000BF1848001D31
:1012C000008810F0080FF9D0704701460020144A3A
:1012D000121D12880A4201D0012000E00020704750
:1012E0000F49091D098881430D4A121D118070475D
:1012F000014600200A4A121D12880A40D0B2084A4C
:1013000012880A4202D008B1012000E00020704794
:101310000349091D09888143014A121D1180704744
:101320000028004010B50446BE48844208D101217F
:101330008014FFF707FF0021A014FFF703FF16E05A
:10134000B948844208D101210014FFF708FF0021A9
:101350002014FFF704FF0AE0B448844207D10121BA
:10136000C013FFF7FCFE0021E013FFF7F8FE10BDED
:1013700010B50022028802F441520B884C882343A6
:101380008C882343CC8823430C8923434C892343F3
:101390008C892343CC8923431A430280838B4FF2E9
:1013A000FF74234083830B8A038210BD2DE9F04F25
:1013B00085B005460C464FF0000902274FF00008A3
:1013C0004FF0010B0026B246A88B4FF240010840B7
:1013D000A88302202884B5F81C90A068022801D1B7
:1013E00000BF38E0A08810B94FF0010B01E04FF0CA
:1013F000020B8D48854200D100E000BF6846FFF730
:101400001AFEDDF800A0E088B0F5007F0AD14FEAAF
:101410001A2000EB80004000A168B0FBF1F0401DF5
:1014200086B20BE04FEA4B10BAFBF0F000EB800005
:101430004000A168B0FBF1F0401D86B20A20B6FB67
:10144000F0F606F00108A6EB0800C0F34F074FF6D0
:10145000FF7000EA0828022F01DBFF2F02DD0227C0
:101460004FF00008E08840EA080038432884A0884C
:10147000A1890843618808432188084340F400603B
:1014800040EA0909A5F81C9005B0BDE8F08F0021DD
:10149000018041808180C180018141818181C18140
:1014A0000721018270470021018041808180C18035
:1014B0000221816000218181704721B1028842F0C0
:1014C0004002028004E002884FF6BF731A40028097
:1014D000704721B1828B42F48062828304E0828B68
:1014E0004FF6FF331A408283704730B50024002343
:1014F0000C110125A540ABB21AB185881D4385802A
:1015000002E085889D43858030BD1AB183880B43F6
:10151000838002E083888B4383807047818170479A
:10152000014688897047A1F57E42FF3A04D00288BF
:1015300042F48072028004E002884FF6FF631A4092
:101540000280704721B1828842F00402828004E068
:1015500082884FF6FB731A408280704702884FF2F0
:10156000FF731A40028002880A4302807047018894
:1015700041F480510180704721B1028842F4005249
:10158000028004E002884DF6FF731A400280704723
:1015900002460020012901D0108B00E0908A70479C
:1015A0000146088A7047B1F5804F04D1028842F4A1
:1015B0008042028004E002884BF6FF731A400280EA
:1015C00070470246002013890B4201D0012000E041
:1015D00000207047CA4302817047F0B502460020E0
:1015E00000240023002501F00F070126BE40B4B2FD
:1015F0000B1101269E40B3B2968806EA03051689B0
:10160000264202D00DB1012000E00020F0BD10B54F
:10161000002201F00F040123A3409AB2D3430381B7
:1016200010BD00000030014000380040003C004088
:1016300010B50446FB48844209D101218803FFF715
:1016400081FD00214FF48040FFF77CFD32E0F64839
:10165000844209D101214804FFF781FD00214FF4A4
:101660000030FFF77CFD25E0F048844209D10121DC
:101670008804FFF774FD00214FF48020FFF76FFD11
:1016800018E0EB48844209D10121C804FFF767FD47
:1016900000214FF40020FFF762FD0BE0E548844293
:1016A00008D101210805FFF75AFD00214FF48010F1
:1016B000FFF755FD10BD2DE9F04786B005460E46F3
:1016C0000024A24600BFA1460027B08900B100BF98
:1016D0002F462C8A4CF6FF700440F08804432C827D
:1016E000AC894EF6F3100440B08831890843718903
:1016F00008430443AC81AC8A4FF6FF400440B089F4
:101700000443AC8201A8FFF796FCC648874202D189
:10171000DDF810A001E0DDF80CA0A88910F4004F5E
:1017200008D00AEBCA0000EB0A1031684900B0FB90
:10173000F1F807E00AEBCA0000EB0A1031688900F3
:10174000B0FBF1F86420B8FBF0F00401200964213B
:1017500001FB1089A88910F4004F08D0322000EB5B
:10176000C900B0FBF1F000F00700044308E03220AC
:1017700000EB09106421B0FBF1F000F00F0004430E
:101780002C8106B0BDE8F0874FF4165101600021AE
:101790008180C18001810C214181002181817047BC
:1017A00010B502460020108A4FF2FF0318400B8844
:1017B0004C8823438C882343CC88234318431082CE
:1017C00010BD0021018041808180C180704721B11E
:1017D000828942F40052828104E082894DF6FF73CF
:1017E0001A4082817047F0B5034600240026002588
:1017F0000020A1F510676A3F00D100BF1846C1F371
:10180000421401F01F06012707FA06F5012C01D149
:101810000C3004E0022C01D1103000E014301AB179
:1018200007682F43076002E00768AF430760F0BD19
:101830001AB1838A0B43838202E0838A8B438382BB
:101840007047028A4FF6F0731A400282028A0A43F6
:101850000282704782894FF2FF731A408281828927
:101860000A438281704721B1828942F0020282815B
:1018700004E082894FF6FD731A4082817047028A24
:101880004FF6DF731A400282028A0A4302827047CF
:1018900021B1028A42F48042028204E0028A4BF6BD
:1018A000FF731A4002827047C1F3080282807047BA
:1018B00001468888C0F308007047818941F0010122
:1018C00081817047028BD2B20283028B42EA0122ED
:1018D00002837047028B02F47F420283028B0A4329
:1018E0000283704721B1828A42F02002828204E0A2
:1018F000828A4FF6DF731A408282704721B1828A52
:1019000042F01002828204E0828A4FF6EF731A409E
:101910008282704721B1828A42F00802828204E00A
:10192000828A4FF6F7731A408282704721B182890A
:1019300042F40042828103E08289C2F30E02828176
:10194000704721B1828A42F40062828204E0828A76
:101950004FF2FF731A4082827047828A4FF6FB7300
:101960001A408282828A0A438282704721B1828A27
:1019700042F00202828204E0828A4FF6FD731A402E
:101980008282704702460020B1F5007F00D100BF7F
:1019900013880B4201D0012000E00020704701F4C1
:1019A0000072B2F5007F00D100BFCA4302807047C9
:1019B00070B502460024002300250020A1F5106622
:1019C0006A3E00D100BFC1F3421501F01F0301269A
:1019D00006FA03F3012D02D19689334006E0022D69
:1019E00002D1168A334001E0968A33400C12012658
:1019F00006FA04F41688344013B10CB1012000E05B
:101A0000002070BD10B500220023A1F510646A3CCF
:101A100000D100BF0A1201249440A3B2DC43048029
:101A200010BD000000380140004400400048004064
:101A3000004C00400050004010B500F0E1FE00F006
:101A4000D6FC002010BD704700BFFEE700BFFEE7D8
:101A500000BFFEE700BFFEE7704770477047000019
:101A60000CB50020019000906B48006840F4803075
:101A70006949086000BF6848006800F400300090C1
:101A80000198401C0190009818B90198B0F5A06F1A
:101A9000F1D16148006810F4003F02D001200090AD
:101AA00001E0002000900098012842D15B480068C6
:101AB00040F01000594908600846006820F0030013
:101AC00008600846006840F002000860524840681C
:101AD000514948600846406848600846406840F4FC
:101AE000806048600846406820F47C1048600846E2
:101AF000406840F4E81048600846006840F0807094
:101B0000086000BF4448006810F0007FFAD04248E7
:101B1000406820F00300404948600846406840F0B3
:101B20000200486000BF3C48406800F00C000828F4
:101B3000F9D10CBD10B5FFF793FF10BD10B53648B5
:101B4000006840F0010034490860084640683449A4
:101B500008403149486008460068324908402E492B
:101B600008600846006820F4802008600846406845
:101B700020F4FE0048604FF41F008860FFF7DAFF92
:101B80004FF000602849086010BD10B5002100200A
:101B90000022214B5B6803F00C0121B1042906D01F
:101BA000082928D107E0214B214C236027E01F4B57
:101BB0001F4C236023E0184B5B6803F47010164B36
:101BC0005B6803F48032022303EB904022B9194B87
:101BD0004343174C23600DE00F4B5B6813F4003F49
:101BE00004D0144B4343124C236003E00F4B434398
:101BF0000F4C236003E00D4B0D4C236000BF00BF72
:101C0000054B5B68C3F303130B4CE15C084B1B688B
:101C1000CB40074C236010BD001002400020024062
:101C20000000FFF8FFFFF6FE08ED00E000127A006A
:101C30001400002000093D001800002008B5012113
:101C40000420FFF765FA01210820FFF761FA01215E
:101C50004020FFF75DFA6020ADF8000010208DF8FD
:101C6000030003208DF8020069462448FEF734FF84
:101C70002020ADF8000010208DF8030003208DF81F
:101C8000020069461D48FEF727FF2020ADF800003E
:101C900010208DF8030003208DF8020069461748D4
:101CA000FEF71AFF08BD10B520211448FEF7C1FF4A
:101CB00010BD10B540211148FEF7BBFF10BD10B597
:101CC00020210F48FEF7B5FF10BD10B520210D48AB
:101CD000FEF7AFFF10BD10B520210848FEF7A7FFA3
:101CE00040210648FEF7A3FF20210548FEF79FFF8D
:101CF00020210448FEF79BFF10BD000000080140B2
:101D0000000C014000180140FE4908807047FD4961
:101D1000891C08807047FB48801C00887047F94A7E
:101D20001080921C1180704710B504462046FFF7C2
:101D3000EBFF052000F09AFDFFF7EDFF10BDF24824
:101D4000C079F04908807047EE49891C08807047C7
:101D500008B501210846FFF7DBF901214FF4B47003
:101D6000FFF7D6F910208DF8030003208DF802004C
:101D70000120ADF800006946E448FEF7ADFE0320FF
:101D80008DF8020018208DF803004CF20370ADF8B6
:101D900000006946DE48FEF79FFE4FF68070ADF802
:101DA00000006946DB48FEF797FE1020ADF8000002
:101DB0006946D748FEF790FE2020ADF8000069463E
:101DC000D348FEF789FE4FF48050ADF80000694615
:101DD000D148FEF781FE0120ADF800006946CE48EB
:101DE000FEF77AFE08BD00B59DB001210802FFF79D
:101DF00082F901200090002001900F200290002025
:101E00000390049005900690079008900320099095
:101E100000200A900B900C900D9006200E90002050
:101E20000F90082010901020119000201290149014
:101E300015901390169018901A904FF480501790A8
:101E400080001990CDF86CD007A81C900EA8FEF762
:101E500026FB01210620FEF783FC1DB000BD10B556
:101E6000322000F01BFD01210020FFF758FF322037
:101E700000F014FD0020FFF757FFA34988800846B3
:101E80008088FF280ADB08468088A0F57F41FF395B
:101E900004D09D488088B0F5134F4BD1D320FFF775
:101EA00033FFFFF738FFFFF736FFFFF734FF9649A0
:101EB0008880084680884FF6FF7101EA0020924929
:101EC0008880FFF728FF9049898808438E498880D9
:101ED00008468088A0F5134141391BD0BF20FFF789
:101EE00013FFFFF718FFFFF716FFFFF714FFFFF7C9
:101EF00012FF85498880084680884FF6FF7101EA05
:101F0000002081498880FFF706FF7F4989880843C0
:101F10007D4988807C488088A0F51341413909D0EB
:101F200079488088A0F5D041043903D049F2413086
:101F30007549888074488088A0F5134141397CD167
:101F4000CF20FFF7E1FE0020FFF7E1FEC120FFF701
:101F5000DEFE3020FFF7DBFEED20FFF7D5FE64202C
:101F6000FFF7D5FE0320FFF7D2FE1220FFF7CFFECA
:101F70008120FFF7CCFEE820FFF7C6FE8520FFF7A3
:101F8000C6FE1020FFF7C3FE7A20FFF7C0FECB206D
:101F9000FFF7BAFE3920FFF7BAFE2C20FFF7B7FE95
:101FA0000020FFF7B4FE3420FFF7B1FE0220FFF758
:101FB000AEFEF720FFF7A8FE2020FFF7A8FEEA20DC
:101FC000FFF7A2FE0020FFF7A2FE0020FFF79FFE12
:101FD000C020FFF799FE1B20FFF799FEC120FFF7F5
:101FE00093FE0120FFF793FEC520FFF78DFE302002
:101FF000FFF78DFE3020FFF78AFEC720FFF784FE33
:10200000B720FFF784FE3620FFF77EFE4820FFF75B
:102010007EFE3A20FFF778FE5520FFF778FEB120CC
:10202000FFF772FE0020FFF772FE1A20FFF76FFE27
:10203000B620FFF769FE0A2000E0A4E0FFF767FE84
:10204000A220FFF764FEF220FFF75EFE0020FFF7FC
:102050005EFE2620FFF758FE0120FFF758FEE02025
:10206000FFF752FE0F20FFF752FE2A20FFF74FFE28
:102070002820FFF74CFE0820FFF749FE0E20FFF74F
:1020800046FE0820FFF743FE5420FFF740FEA9203C
:10209000FFF73DFE4320FFF73AFE0A20FFF737FE29
:1020A0000F20FFF734FE0020FFF731FE0020FFF77E
:1020B0002EFE0020FFF72BFE0020FFF728FEE12078
:1020C000FFF722FE0020FFF722FE1520FFF71FFE7C
:1020D0001720FFF71CFE0720FFF719FE1120FFF75E
:1020E00016FE0620FFF713FE2B20FFF710FE5620EA
:1020F000FFF70DFE3C20FFF70AFE0520FFF707FE65
:1021000010200BE0FE07006C24080020000C0140AA
:10211000001401400018014000200140FFF7F7FDC6
:102120000F20FFF7F4FD3F20FFF7F1FD3F20FFF701
:10213000EEFD0F20FFF7EBFD2B20FFF7E5FD002064
:10214000FFF7E5FD0020FFF7E2FD0120FFF7DFFDCF
:102150003F20FFF7DCFD2A20FFF7D6FD0020FFF728
:10216000D6FD0020FFF7D3FD0020FFF7D0FDEF20C4
:10217000FFF7CDFD1120FFF7C7FD782000F08EFBA3
:102180002920FFF7C1FD10BD00B502460B46F848F7
:102190008088A0F51341413913D1F549087AFFF73A
:1021A000B3FD1012FFF7B3FDD0B2FFF7B0FDF04959
:1021B000487AFFF7A9FD1812FFF7A9FDD8B2FFF77B
:1021C000A6FD00BD70B504460026E9480588408894
:1021D000454300210846FFF7D7FFFFF7B0FD00BFDA
:1021E00002E0E4480480761CAE42FAD370BDF0B53C
:1021F000054600240027DE48807901281ED1DC48EE
:102200008088A0F5D041043918D0082D15D2DFE818
:1022100005F00406080A0C0E101206250DE007252D
:102220000BE0042509E0052507E0012505E0002570
:1022300003E0032501E0022500BF00BFCC488088F1
:10224000A0F51341413905D0C9488088A0F5D04197
:1022500004397DD1082D1CD2DFE805F00406090CF5
:102260000F12151800BF14E044F0800411E044F090
:1022700040040EE044F0C0040BE044F0200408E009
:1022800044F0600405E044F0A00402E044F0E004FF
:1022900000BF00BF362744F00804B5488088A0F589
:1022A000D041043901D144F0020421463846FFF7F9
:1022B00036FD14F0200F03D1AD48807901280DD1EF
:1022C000AB480088AA494988884214DAA848068899
:1022D0004088A7490880084646800CE0A44800884A
:1022E000A3494988884206DDA14806884088A0495C
:1022F0000880084646809E49087AFFF705FD0020C1
:10230000FFF705FD0020FFF702FD99490988491EE6
:10231000C1F30F20FFF7FBFC95490978491EC8B2AD
:10232000FFF7F5FC9249487AFFF7EEFC0020FFF733
:10233000EEFC0020FFF7EBFC8D494988491EC1F3F4
:102340000F20FFF7E4FC8A498978491EC8B200E0F3
:1023500001E0FFF7DCFCF0BD10B5044644BB0020F3
:1023600083498871F02008804FF4A07048800846A7
:102370008088A0F51341413905D07D488088A0F5BB
:10238000D041043929D12C207949C8712A200872FA
:102390002B20487208468088A0F5D04104391CD112
:1023A0004FF4A070724908804FF4F070488014E038
:1023B00001206F4988714FF4A0700880F020488098
:1023C00008468088A0F51341413906D12C20684980
:1023D000C8712A2008722B2048720020FFF707FFDF
:1023E00010BD10B501216448FEF721FC10BD10B5E9
:1023F000FFF7AEFCFFF7F7FCFFF731FDFFF7F1FF4A
:102400000020FFF7A9FF4FF6FF70FFF7DBFE10BDBE
:1024100070B505460E46144631462846FFF7B4FE11
:10242000FFF78DFC5348048070BD10B50121524860
:10243000FEF7FFFB10BD2DE9F04F06460F46934611
:102440009846DDF8249000251FE099F800A009F1D6
:102450000109002416E01AF0800F07D07A1991B212
:10246000321990B24246FFF7D3FF06E07A1991B2D3
:10247000321990B25A46FFF7CBFF4FF6FF7000EAD1
:102480004A0A641C082CE6DB6D1C102DDDDBBDE860
:10249000F08F2DE9F04F06460F4693469946DDF83A
:1024A0002480002523E098F8010098F8001040EA05
:1024B000012A08F10208002416E01AF4004F07D0A0
:1024C0007A1991B2321990B24A46FFF7A1FF06E09D
:1024D0007A1991B2321990B25A46FFF799FF4FF626
:1024E000FF7000EA4A0A641C102CE6DB6D1C102DFC
:1024F000D9DBBDE8F08F2DE9FF4F074688469A46A5
:10250000DDF83C9000262DE0002423E00D9810F823
:1025100001BB0D9000251AE01BF0800F0AD008EBDC
:10252000060291B205EBC4023A4490B25246FFF75C
:102530006FFF09E008EB060291B205EBC4023A44D2
:1025400090B2029AFFF764FF4FEA4B0B6D1C082D07
:10255000E2DB641C4FEAE97109EB5171B4EBE10F66
:10256000D4DB761C0E988642CEDBBDE8FF8F0000E0
:10257000240800200008006C000C01402DE9F843FD
:1025800006460F4690469946089D00244AE0287862
:10259000A02828DD00241FE0EB2E01D900261037EB
:1025A00028788C4911F81410884214D168780121D8
:1025B00001EB4401874A515C88420CD186482021B6
:1025C00001FB04004B464246394600903046FFF777
:1025D00060FF103604E0641C00F097F9A042DBD8DD
:1025E00000BFAD1C1EE0E62E01D9002610370024E6
:1025F00012E028787949095D88420CD17848102189
:1026000001FB04004B464246394600903046FFF736
:1026100012FF083604E0641C00F06EF9A042E8D80E
:1026200000BF6D1C28780028B1D1BDE8F8832DE9E2
:10263000F84305460E4617469846089C20E0607809
:10264000A1382178A139C1EB011202EB411100EB55
:102650004100400163490860202208460168624841
:1026600000F0B2FAEB2D01D9002510365E48434642
:102670003A46314600902846FFF70BFF1035A41C60
:1026800020780028DBD1BDE8F8832DE9F84F064615
:102690000F4691469A46DDF828B04FF000083D46B7
:1026A0001DE0344616E008F101001BF800001BF89D
:1026B000081040EA01200090F02C08DAB5F5A07F60
:1026C00005DA009B9AB2A9B2A0B2FFF7A1FE08F109
:1026D0000208641C09EB0600A042E4DC6D1C0AEB56
:1026E0000700A842DDDCBDE8F88F2DE9F843064677
:1026F00089461746002425E037484FF478434FF6C3
:10270000FF72642100902046FFF7C3FE354614E0B7
:10271000C5EB0510400100EB4400401C385CC5EBE4
:102720000511490101EB4401795C40EA0128424668
:10273000A9B2A0B2FFF76CFE6D1C06EB0900A8421F
:10274000E6DC641CF02CD7DB42F2107000F08EF84F
:10275000BDE8F8832DE9F04786B005460E46904661
:10276000142222A101A801F021F834460027BA461C
:1027700035B9302004F8010B304606B0BDE8F087CB
:10278000002D05DA302004F8010B6D424FF0010AEC
:1027900009E095FBF8F008FB105001A9085C04F86B
:1027A000010B95FBF8F5002DF3D1BAF1000F01D024
:1027B000701C00E03046074607E097F8009020784C
:1027C000387084F800907F1C641EA742F5D3304611
:1027D000D3E700000208002034000020A4070020F6
:1027E000D40100202C0000202E080020303132338C
:1027F00034353637383941424344454600000000FD
:1028000030B538480068384AB0FBF2F1B1F1807F4A
:1028100001D301201DE021F07F40401E4FF0E02257
:10282000506150170F22002807DA13071D0E2F4B97
:1028300000F00F04241F1D5503E013071C0E2C4B42
:102840001C5400BF00204FF0E0229061072010616F
:102850000020012801D100BFFEE74FF0E020006911
:1028600020F001004FF0E021086130BD21490860EF
:102870004FF0E021096941F001014FF0E0221161C0
:1028800000BF1C4909680029FBD14FF0E02109690C
:1028900021F001014FF0E022116170474FF47A718D
:1028A0004143144A11604FF0E021096941F00101F0
:1028B0004FF0E022116100BF0E4909680029FBD1E9
:1028C0004FF0E021096921F001014FF0E022116190
:1028D00070470848006820B106480068401E054956
:1028E000086070471400002040420F0018ED00E01F
:1028F00000E400E030000020084A00E0491C12F823
:10290000013B002BFAD1481E7047054900E0521CDC
:1029100011F8013B002BFAD150087047A4070020A2
:102920000208002000B587B001210820FEF7F0FB67
:1029300001218803FEF7F9FB4FF42040ADF81800A1
:1029400018208DF81B0003208DF81A0006A9F948FD
:10295000FEF7C2F84FF48050ADF8180010208DF843
:102960001B0003208DF81A0006A9F248FEF7B4F800
:102970004FF48040ADF8180004208DF81B0006A924
:10298000EC48FEF7A9F80020ADF804004FF482707F
:10299000ADF806000020ADF80800ADF80A00ADF86B
:1029A0000C004FF40070ADF80E001020ADF81000D0
:1029B0000020ADF812000720ADF8140001A9DE4890
:1029C000FEF7D6FC0121DC48FEF777FD07B000BD1D
:1029D00010B5044600BF0221D748FEF7F2FD0028DB
:1029E000F9D02146D448FEF799FD00BF0121D24815
:1029F000FEF7E7FD0028F9D0CF48FEF791FDC0B201
:102A000010BD10B54FF48051CA48FEF712F90620E8
:102A1000FFF7DEFF4FF48051C648FEF708F910BDFE
:102A200010B500244FF48051C248FEF702F905208A
:102A3000FFF7CEFF00BFFF20FFF7CAFF044614F0E8
:102A4000010FF8D14FF48051BA48FEF7F0F810BDED
:102A500070B505460C461646FFF7D3FF4FF480517C
:102A6000B448FEF7E6F80220FFF7B2FFC4F30740D0
:102A7000FFF7AEFFC4F30720FFF7AAFFE0B2FFF7AE
:102A8000A7FF03E02878FFF7A3FF6D1C3000A6F135
:102A900001018EB2F6D14FF48051A648FEF7C7F877
:102AA000FFF7BEFF70BD2DE9F05F07460E461446E6
:102AB0004FF00008C146C2460025AB4606F0FF0AAB
:102AC000CAF10000C5B22046E11704EB1161C1F361
:102AD0000728E11704EB11610912A4EB012101F0B1
:102AE000FF09BAF1000F20D1B8F1000F05D122463D
:102AF00031463846FFF7ACFF64E009E04FF48072DE
:102B000031463846FFF7A4FF06F5807607F5807753
:102B10005FEA0800A8F1010101F0FF08EED14A4682
:102B200031463846FFF794FF4CE0B8F1000F18D15A
:102B3000A94510DDA9EB050000F0FF0B2A46314640
:102B40003846FFF785FF2E442F445A463146384613
:102B5000FFF77EFF36E0224631463846FFF778FF22
:102B600030E0601B84B22046E11704EB1161C1F331
:102B70000728E11704EB11610912A4EB012101F010
:102B8000FF092A4631463846FFF762FF2E442F449C
:102B900009E04FF4807231463846FFF759FF06F5D9
:102BA000807607F580775FEA0800A8F1010101F05F
:102BB000FF08EED1B9F1000F04D04A46314638463D
:102BC000FFF746FFBDE8F09F70B505460C46164678
:102BD0004FF480515748FEF72CF80320FFF7F8FE1A
:102BE000C4F30740FFF7F4FEC4F30720FFF7F0FE3D
:102BF000E0B2FFF7EDFE04E0FF20FFF7E9FE2870EA
:102C00006D1C3000A6F101018EB2F5D14FF4805158
:102C10004848FEF70CF870BD2DE9F041002400256E
:102C2000002600274FF480514248FEF702F89F200B
:102C3000FFF7CEFEFF20FFF7CBFE0546FF20FFF794
:102C4000C7FE0646FF20FFF7C3FE07464FF480513C
:102C50003848FDF7ECFF280440EA062040EA070464
:102C60002046BDE8F08110B50446FFF7CAFE4FF4D8
:102C700080513048FDF7DDFF2020FFF7A9FEC4F3A7
:102C80000740FFF7A5FEC4F30720FFF7A1FEE0B25F
:102C9000FFF79EFE4FF480512648FDF7C8FFFFF76F
:102CA000BFFE10BD10B50446FFF7ABFE4FF48051D8
:102CB0002048FDF7BEFFD820FFF78AFEC4F3074087
:102CC000FFF786FEC4F30720FFF782FEE0B2FFF7AE
:102CD0007FFE4FF480511748FDF7A9FFFFF7A0FED4
:102CE00010BD10B5FFF78DFE4FF480511148FDF770
:102CF000A0FFC720FFF76CFE4FF480510D48FDF791
:102D000096FFFFF78DFE10BD70B5044600250DE05F
:102D1000002605E014F8011B08A000F0F9FD761C60
:102D2000102EF7D306A000F0F3FD6D1C102DEFD38D
:102D300070BD0000000C01400038004025780900FB
:102D40000A0D00000146002000BF02E000220A54E4
:102D5000401CFF28FAD9704770B5002600BF36B175
:102D600020A000F0D5FD4FF4FA70FFF797FDFFF7B4
:102D700053FF0546294620A000F0CAFD0126204841
:102D80008542ECD11F48FFF76EFF002402E01E4988
:102D90000C55641CFF2CFAD91CA000F0B9FD1FA033
:102DA00000F0B6FD4FF4807220491748FFF750FE3F
:102DB0001FA000F0ADFD1448FFF7C4FF1FA000F0F6
:102DC000A7FD22A000F0A4FD4FF480721749491D11
:102DD0000D48FFF7F9FE21A000F09AFD0A48FFF721
:102DE00093FF70BDB6C1C8A1B5BDB5C44944B2BB5F
:102DF000D5FDC8B7210A0D0025780A0D0000000096
:102E00001740EF00005064004E080020BFAACABC63
:102E1000D0B4464C4153480A0D000000D5FDD4DA29
:102E2000D0B4A1ADA1AD0A0D0000000000556400B2
:102E3000D0B4B3C9B9A6A3A10A0D0000BFAACABCE9
:102E4000B6C1464C4153480A0D000000D5FDD4DA06
:102E5000B6C1A1ADA1AD0A0D00000000B6C1B3C955
:102E6000B9A60A0D0000000000B585B0012144F2AA
:102E70000400FEF74DF94FF40070ADF81000182073
:102E80008DF8130003208DF8120004A93648FDF7D1
:102E900023FE4FF48060ADF8100004208DF813007D
:102EA00004A93148FDF718FE4FF4E13000900020EE
:102EB000ADF80400ADF80800ADF80600ADF80C0060
:102EC0000C20ADF80A0069462848FEF7F4FB012102
:102ED0002648FEF77CFC05B000BD70B5002400BF9D
:102EE00000BF20212148FEF74DFD0128F9D11F48E0
:102EF000FEF7DEFC1E49085500BF80211B48FEF787
:102F000041FD0128F9D11948FEF7D2FC05462946B2
:102F10001648FEF7C9FC2046641C1549085C2328A6
:102F2000DED10021601E124A115412A1104600F099
:102F30004FFC08B9FEF7B7FE0FA10D4800F048FCA2
:102F400008B9FEF7B6FE70BD70B504460D4600BF69
:102F500040210648FEF716FD0028F9D0A1B203482B
:102F6000FEF7A2FC204670BD000801400038014079
:102F70004E09002031310000323100000EB500F062
:102F80003DF801210846FEF7C3F800210846FDF789
:102F9000B7FE0120019000208DF808000C208DF86C
:102FA000090001208DF80A0001A8FDF7A9F9062003
:102FB0008DF8000001208DF801008DF802008DF8D9
:102FC00003006846FDF7C3F80EBD10B50120FDF7FC
:102FD000FDF9012804D1FDF70AFA02A000F098FCDF
:102FE00010BD0000676F20746F2074686520696EE3
:102FF0007465727570742030210D0A0008B50121C6
:103000000420FEF785F801210820FEF781F8012150
:103010004020FEF77DF80120ADF8000004208DF877
:10302000030003208DF8020069462748FDF754FD90
:103030006020ADF8000010208DF8030003208DF80B
:10304000020069462048FDF747FD2020ADF800004A
:1030500010208DF8030003208DF8020069461B48FC
:10306000FDF73AFD2020ADF8000010208DF8030098
:1030700003208DF8020069461548FDF72DFD08BDB7
:1030800010B520211048FDF7D4FD40210E48FDF772
:10309000D0FD20210D48FDF7CCFD20210C48FDF787
:1030A000C8FD10BD10B520210748FDF7C0FD402127
:1030B0000548FDF7BCFD20210448FDF7B8FD20219F
:1030C0000348FDF7B4FD10BD00080140000C0140AD
:1030D0000018014008B503208DF8000001208DF88C
:1030E00001008DF802008DF803006846FDF72FF807
:1030F00001210846FEF774F808BDF0B503460C46FA
:103100001546642093FBF0F0C6B2642093FBF0F701
:1031100000FB1730C1B2132E02DD01F16400C1B211
:103120000846CF1701EB977701EBA707BAB2072044
:1031300092FBF0F700FB172082B25719601EDFF8F0
:103140005CC41CF80000384482B2CF1701EB9777BB
:10315000BF10B1EB870703D1032C01DA501E82B2F6
:10316000072092FBF0F700FB1720C0B2F0BD01462C
:10317000CA1701EB92729210B1EB820212D1642055
:1031800091FBF0F200FB121050B94FF4C87091FBA4
:10319000F0F200FB121008B9012070470020FCE794
:1031A0000120FAE70020F8E770B50026002400258A
:1031B000FEF736F80646FA48B6FBF0F4F948008800
:1031C000A0423CD0F7490C8040F2B27510E028468E
:1031D000FFF7CDFF40B1B4F5B77F02D3A4F5B774C4
:1031E00004E0681C85B206E0A4F26D14681C85B288
:1031F000B4F5B67FEBD800BFEB488580002516E01C
:10320000E9498888FFF7B3FF30B1012D04D11D2CA7
:1032100001D31D3C09E00CE0E448405DA04203D826
:10322000E248405D241A00E003E0681C85B21C2CD3
:10323000E6D200BF681CDC498871601CC871D848A0
:10324000B6FBF0F100FB11644FF46160B4FBF0F0E9
:10325000D54908704FF46160B4FBF0F100FB1140F8
:103260003C21B0FBF1F0D04948704FF46160B4FBF1
:10327000F0F100FB11403C21B0FBF1F201FB120028
:10328000C94988700B46DA7999799888FFF735FF34
:10329000C5490872002070BD2DE9F05F06460F4653
:1032A00090469946DDE90AAB002440F2B2708642AE
:1032B00003DB40F63300864202DD0120BDE8F09FCB
:1032C00040F2B2750AE02846FFF751FF10B1B84846
:1032D000044401E0B7480444681C85B2B542F2DBFF
:1032E000781EC7B2002510E0B048405D40F2A3212F
:1032F000484304EBC0143046FFF739FF18B1012DE5
:1033000001D1A7480444681C85B2BD42ECDBA8F19A
:10331000010040F2A321484304EBC014C9EB49105B
:10332000C0EB092004EB0014CAEB0A1004EB800484
:103330005C4401214FF0C050FDF7F7FE0120FDF77E
:1033400022FD2046FDF775FFFDF7A6FF0020B5E73B
:103350001CB5002401214FF0C050FDF7E6FE01200E
:10336000FDF711FD0420FCF790FFA0F5A0415039B6
:1033700040D0FCF755FF0120FDF73AFE04E0601C49
:10338000C4B20A20FFF78AFA4120FDF79AFD08B976
:10339000FA2CF4DBFA2C01DB01201CBD4FF4807009
:1033A000FDF73FFE0120FDF742FEFDF775FFFDF73B
:1033B0007BFF01210846FDF713FFFDF76DFFFDF7C9
:1033C0001CFF47F6FF70FDF741FFFDF765FF372053
:1033D000112113230D22CDE9001004214FF4FC60CC
:1033E000FFF75AFFFDF712FF45F250010420FCF7EA
:1033F00040FF07E0FDF758FF01210846FDF7F0FE0A
:10340000FDF74AFFFFF766FEFFF7CEFE0020C4E798
:1034100000B587B01822684901A800F0C7F96248D2
:1034200080884FF47A7190FBF1F03030C0B28DF8A3
:1034300004005D48808890FBF1F201FB12006421DA
:1034400090FBF1F03030C0B28DF80500564880880E
:103450004FF47A7190FBF1F201FB1200642190FBB2
:10346000F1F201FB12000A2190FBF1F03030C0B202
:103470008DF806004C4880884FF47A7190FBF1F289
:1034800001FB1200642190FBF1F201FB12000A2102
:1034900090FBF1F201FB12003030C0B28DF8070052
:1034A0004148807990FBF1F03030C0B28DF80900CE
:1034B0003D48807990FBF1F201FB12003030C0B240
:1034C0008DF80A003848C07990FBF1F03030C0B276
:1034D0008DF80C003448C07990FBF1F201FB12002A
:1034E0003030C0B28DF80D002F48007890FBF1F01D
:1034F0003030C0B28DF80F002B48007890FBF1F20D
:1035000001FB12003030C0B28DF810002648407820
:1035100090FBF1F03030C0B28DF8120022484078B4
:1035200090FBF1F201FB12003030C0B28DF81300B5
:103530001D48807890FBF1F03030C0B28DF8150056
:103540001948807890FBF1F201FB12003030C0B2D4
:103550008DF8160000208DF817001348007A072810
:103560006FD2DFE800F0040F37424D58630013A01C
:103570004FF478434FF6FF722D2100905020FEF754
:10358000FDFF5EE010A04FF478434FF6FF722D214F
:1035900000905020FEF7F2FF53E00000103C0008BE
:1035A000805101001E080020800900201C3C0008FA
:1035B0000085E2018033E101283C000853756E6408
:1035C00061792020200000004D6F6E646179202019
:1035D0002000000057A04FF478434FF6FF722D21D2
:1035E00000905020FEF7CAFF2BE055A04FF478431F
:1035F0004FF6FF722D2100905020FEF7BFFF20E014
:1036000052A04FF478434FF6FF722D2100905020C6
:10361000FEF7B4FF15E050A04FF478434FF6FF7269
:103620002D2100905020FEF7A9FF0AE04DA04FF495
:1036300078434FF6FF722D2100905020FEF79EFF39
:1036400000BF00BF01A84FF478434FF6FF7214216A
:1036500000902820FEF792FF07B000BD10B50120B2
:10366000FDF746FE20B10120FDF752FEFFF79CFD5D
:10367000FFF7CEFE3EA000F04BF910BD2DE9F05F44
:1036800006460F4690469946DDE90AAB002440F213
:10369000B270864203DB40F63300864202DD012031
:1036A000BDE8F09F40F2B2750AE02846FFF75FFDE3
:1036B00010B13148044401E030480444681C85B22C
:1036C000B542F2DB781EC7B2002510E02C48405D01
:1036D00040F2A321484304EBC0143046FFF747FDF6
:1036E00018B1012D01D127480444681C85B2BD42A0
:1036F000ECDBA8F1010040F2A321484304EBC01425
:10370000C9EB4910C0EB092004EB0014CAEB0A1006
:1037100004EB80045C4401214FF0C050FDF705FD2F
:103720000120FDF730FB2046FDF79EFDFDF7B4FDBF
:103730000020B5E7547565736461792020000000AE
:103740005765646E65736461790000005468757232
:1037500073646179200000004672696461792020F9
:1037600020000000536174757264617920000000CC
:1037700031323331323300000085E2018033E10120
:103780001C3C00088051010006488047064800475D
:10379000FEE7FEE7FEE7FEE7FEE7FEE7FEE7FEE701
:1037A000FEE7FEE73D1B00083101000840EA010387
:1037B0009B0703D009E008C9121F08C0042AFAD2E7
:1037C00003E011F8013B00F8013B521EF9D27047AB
:1037D00010B5002200E0521C835C8C5CA34201D136
:1037E000002BF8D1D8B2E1B2401A10BD2DE9F05F3C
:1037F0000546002092469B46884606468146402460
:103800001BE0284641464746224600F042F8534610
:103810005A46C01A914110D311461846224600F06C
:1038200029F82D1A67EB01084F4622460120002196
:1038300000F020F817EB00094E41201EA4F101040E
:10384000DFDC484631462A464346BDE8F09F00008B
:10385000064C074D06E0E06840F0010394E80700DD
:1038600098471034AC42F6D3FCF766FC403C0008A5
:10387000603C0008202A04DB203A00FA02F1002014
:1038800070479140C2F1200320FA03F3194390409E
:103890007047202A04DB203A21FA02F00021704709
:1038A00021FA02F3D040C2F12002914008431946A8
:1038B000704770B501EB020410F8015B15F00703C7
:1038C00001D110F8013B2A1106D110F8012B03E0B9
:1038D00010F8016B01F8016B5B1EF9D12B0705D4C1
:1038E0000023521E0FD401F8013BFAE710F8013B08
:1038F00002F10202A1EB030303E013F8015B01F8FC
:10390000015B521EF9D5A142D6D3002070BD000044
:103910000FB4054B10B503A9044A029800F018F83B
:1039200010BC5DF814FB0000492F0008200800209F
:1039300002E008C8121F08C1002AFAD17047704778
:10394000002001E001C1121F002AFBD170470000D6
:103950002DE9FF4F8DB09B460F460446002638E107
:10396000252801D00F9959E00025641C9D49A846DF
:1039700001222378203B02FA03F0084202D00543DB
:10398000641CF6E720782E2817D114F8010F45F0B3
:1039900004052A280ED06FF02F022078A0F1300104
:1039A00009290AD808EB880102EB410100EB010864
:1039B000641CF2E757F8048B641C20786C280DD047
:1039C00004DC4C2812D06A2811D104E074280DD0F0
:1039D0007A280CD10AE045F4001507E0617845F437
:1039E0008015814202D1641C05F58015641C227883
:1039F000692A46D008DC002A70D0582A69D0632A88
:103A000011D0642A08D13CE0702A69D0732A14D0FE
:103A1000752A5CD0782A5CD00F9910465A46904798
:103A200006F10106D4E017F8040B8DF80000002021
:103A30008DF80100E946012003E057F8049B4FF0A0
:103A4000FF3069074FF0000501D40AE06D1C4545C1
:103A50000DDA8542FADB19F805100029F6D106E0E7
:103A60006D1C8542FCDB19F805100029F8D12E44A5
:103A700004E019F8010B5A460F9990476D1EF8D2D1
:103A8000A6E00A200021CDE90801C5F30250022872
:103A90000BD001CFC11700290EDA4FF0000CD0EB8C
:103AA0000C006CEB01012D2309E007F1070727F05B
:103AB0000707F7E80201EEE72B0504D52B238DF865
:103AC0002830012330E0EB072ED02023F7E70A202F
:103AD00000E010200021CDE9080109E07DE0FFE7CA
:103AE0001020002145F00405CDE908014FF0080839
:103AF000C5F3025002281BD001CF00214FF0000A6D
:103B00002B0712D5702A19D0DDE908C38CF0100CF0
:103B10005CEA030C09D150EA010306D030238DF88A
:103B200028308DF8292002239A46582A10D00AE01E
:103B3000FF1D27F00707F7E80201DFE740228DF8B5
:103B400028204FF0010A28A20DF120090B9209E06C
:103B50002AA2F9E7DDE90823FFF748FE0B9B9B5CEF
:103B600009F8013D50EA0102F4D1ADEB090000F182
:103B700020000890680701D44FF001080899884593
:103B800002DDA8EB010000E000208046002506E0F1
:103B90000AA85A46405D0F999047761C6D1C554502
:103BA000F6DB04E030205A460F999047761CB8F1B6
:103BB0000001A8F10108F5DC05E019F8010B5A46EF
:103BC0000F999047761C0899481E08900029F4DC4C
:103BD000641C207800287FF4C3AE11B03046BDE8E5
:103BE000F08F000009280100303132333435363788
:103BF0003839616263646566000000003031323339
:103C000034353637383941424344454600000000D8
:103C10000003030601040602050003051F1C1F1E06
:103C20001F1E1F1F1E1F1E1F323030302D30302D23
:103C300030302030303A30303A3030000000000070
:103C4000603C00080000002024080000B238000892
:103C500024410008240800206C05000040390008B9
:103C6000412D010203040410090607080902040695
:103C70000884A24A04691821A3FFFF101D27FC1421
:103C80000414A4811042084040104017FC2040E07A
:103C9000E0215022482C4620404E401104112402BD
:103CA0005AFD08290210121D24E1244224020404B2
:103CB00004084008200BFE1012101431FC30125082
:103CC0002B91FC0C1B11FC382A04062118113FF023
:103CD00008100FA008BC1284110422944448122C2E
:103CE000F824480233FFFE1B40207615104007FEE3
:103CF000100F40F04010A01090110812041404108E
:103D000012281A47203A01022D3FF821080299088B
:103D1000160A0102010219221B7FF87112201540B8
:103D20000180014BFFFE30490212053A020214FFE6
:103D3000FE0412041A0F88280918102FF048108862
:103D4000100C190224500820180A7BF84A0852085F
:103D500053F8620620124BF84A444A486A3052200F
:103D6000421042884306421B80040219E6180A40AA
:103D700010202010420882064C19F44710203FF012
:103D80001010133FF812082C087FE8061B1F885DEF
:103D90003902290A19C319221A1F284904120112CB
:103DA00011141FF8211A411429A0237FFC12221E8E
:103DB000227C7F4422023B3E7C061B442208300BBF
:103DC000FF4404842284411482084C182442015385
:103DD00024185C10701001527C1A3C1B6808040403
:103DE000081020427E105009041804020242443890
:103DF000500C040C14242444447E04041E8F7E4082
:103E000040405864202B1C241089604E7E44440896
:103E1000086179603A2485523C390B4E261A020219
:103E200024404924561E2242423F3AC0601924933E
:103E300064581B1C221553221C2D060202022E9CC4
:103E400042261B40199659609E0F1110107EE041CA
:103E50001E3E4444384089292229601B5C6240533D
:103E600042E72330309A70301B0C0C703A04015B2F
:103E700044783050084E4850684844EE492CC96098
:103E80002BFE490192ED9ADC6049A0290149A0412D
:103E90002AD8E075447840E039D075221E02071C0C
:103EA000EE3220018AF8C06E42403C024270197A1C
:103EB000398019A9712AC65F93463B9008E74224CE
:103EC000242810109008D79292AAAA4444C8086ED9
:103ED000241818182476306C1810109058087E4456
:103EE000081010227E6E6F182828243C44D01EF83B
:103EF000444444780E4B4244A02D3E424280015C33
:103F00004244382039ED7920B80CFC4248487848C2
:103F100048404242FC105A40FE1C3C44443E5C8EE9
:103F20008444402AE73C2A7E05497049EC29014A2D
:103F30007C707A08013388F0500CEE444850705081
:103F400048484444EE1AE05A39015342FE1BEE6CD5
:103F5000012A540152D6500CC7626252524A4A4A50
:103F60004646E24C3844820159802AFC7B2A7C4137
:103F700049A059206EB2CA4C3806202A7C6F4B42A9
:103F8000E39018084242402018040216516BFE923A
:103F9000B099D039016A3C105009442424282818CB
:103FA00010101BD692015FAAAA6C44444420480A10
:103FB0002424181818242442E7C09D44442828507B
:103FC000E00C7E840408081020204242FCCD606092
:103FD00020C010818B18180651497A3C1010200619
:103FE00039015920E945C5123624482A027D390194
:103FF00025080804022B40200A2901194E22402BD3
:104000000304013A08061B040350492C493312608B
:10401000492B890119411B402043294E1C040402ED
:10402000511C01020240294E1B204050212D3C42D0
:1040300042627669C0190C196A3B20107F31490B26
:104040003915210410304C431D38445AAA0155B487
:104050004244382808242424FE4848480441300FAC
:104060001038545450301814145454381010300C64
:1040700044A4A8A8A8541A2A2A2A4403101C221AC5
:1040800030396008506EA4948889763F1010D63875
:1040900038D63C011082FFB27F19EE2B10FE05913D
:1040A0005AFE04310A126047997D105D3132333473
:1040B00035363738396162636465666768696A6B8B
:1040C0006C6D6E6F707172737475767778797A41F2
:1040D00042434445464748494A4B4C4D4E4F505148
:1040E00052535455565758595A2C2E3A3B21272291
:1040F00028297B7D7C5C2F3F3C3E7E402324255E2F
:10410000262A5F2D2B3D6020801BC9EEDBDAD0C54F
:10411000D3AFB4EFB5E7D7D3D3D0CFDEB9ABCBBEF7
:04412000D0C7C6DA64
:0400000508000131BD
:00000001FF
